{
  "_format": "hh-sol-artifact-1",
  "contractName": "AmericaPartyBadge",
  "sourceName": "contracts/AmericaPartyBadge.sol",
  "abi": [
    {
      "inputs": [
        {
          "internalType": "address",
          "name": "initialOwner",
          "type": "address"
        }
      ],
      "stateMutability": "nonpayable",
      "type": "constructor"
    },
    {
      "inputs": [],
      "name": "ApprovalCallerNotOwnerNorApproved",
      "type": "error"
    },
    {
      "inputs": [],
      "name": "ApprovalQueryForNonexistentToken",
      "type": "error"
    },
    {
      "inputs": [],
      "name": "BalanceQueryForZeroAddress",
      "type": "error"
    },
    {
      "inputs": [
        {
          "internalType": "uint256",
          "name": "numerator",
          "type": "uint256"
        },
        {
          "internalType": "uint256",
          "name": "denominator",
          "type": "uint256"
        }
      ],
      "name": "ERC2981InvalidDefaultRoyalty",
      "type": "error"
    },
    {
      "inputs": [
        {
          "internalType": "address",
          "name": "receiver",
          "type": "address"
        }
      ],
      "name": "ERC2981InvalidDefaultRoyaltyReceiver",
      "type": "error"
    },
    {
      "inputs": [
        {
          "internalType": "uint256",
          "name": "tokenId",
          "type": "uint256"
        },
        {
          "internalType": "uint256",
          "name": "numerator",
          "type": "uint256"
        },
        {
          "internalType": "uint256",
          "name": "denominator",
          "type": "uint256"
        }
      ],
      "name": "ERC2981InvalidTokenRoyalty",
      "type": "error"
    },
    {
      "inputs": [
        {
          "internalType": "uint256",
          "name": "tokenId",
          "type": "uint256"
        },
        {
          "internalType": "address",
          "name": "receiver",
          "type": "address"
        }
      ],
      "name": "ERC2981InvalidTokenRoyaltyReceiver",
      "type": "error"
    },
    {
      "inputs": [],
      "name": "MintERC2309QuantityExceedsLimit",
      "type": "error"
    },
    {
      "inputs": [],
      "name": "MintToZeroAddress",
      "type": "error"
    },
    {
      "inputs": [],
      "name": "MintZeroQuantity",
      "type": "error"
    },
    {
      "inputs": [],
      "name": "NotCompatibleWithSpotMints",
      "type": "error"
    },
    {
      "inputs": [],
      "name": "NotMinter",
      "type": "error"
    },
    {
      "inputs": [
        {
          "internalType": "address",
          "name": "owner",
          "type": "address"
        }
      ],
      "name": "OwnableInvalidOwner",
      "type": "error"
    },
    {
      "inputs": [
        {
          "internalType": "address",
          "name": "account",
          "type": "address"
        }
      ],
      "name": "OwnableUnauthorizedAccount",
      "type": "error"
    },
    {
      "inputs": [],
      "name": "OwnerQueryForNonexistentToken",
      "type": "error"
    },
    {
      "inputs": [],
      "name": "OwnershipNotInitializedForExtraData",
      "type": "error"
    },
    {
      "inputs": [],
      "name": "SequentialMintExceedsLimit",
      "type": "error"
    },
    {
      "inputs": [],
      "name": "SequentialUpToTooSmall",
      "type": "error"
    },
    {
      "inputs": [],
      "name": "SpotMintTokenIdTooSmall",
      "type": "error"
    },
    {
      "inputs": [],
      "name": "TokenAlreadyExists",
      "type": "error"
    },
    {
      "inputs": [],
      "name": "TransferCallerNotOwnerNorApproved",
      "type": "error"
    },
    {
      "inputs": [],
      "name": "TransferFromIncorrectOwner",
      "type": "error"
    },
    {
      "inputs": [],
      "name": "TransferToNonERC721ReceiverImplementer",
      "type": "error"
    },
    {
      "inputs": [],
      "name": "TransferToZeroAddress",
      "type": "error"
    },
    {
      "inputs": [],
      "name": "URIQueryForNonexistentToken",
      "type": "error"
    },
    {
      "anonymous": false,
      "inputs": [
        {
          "indexed": true,
          "internalType": "address",
          "name": "owner",
          "type": "address"
        },
        {
          "indexed": true,
          "internalType": "address",
          "name": "approved",
          "type": "address"
        },
        {
          "indexed": true,
          "internalType": "uint256",
          "name": "tokenId",
          "type": "uint256"
        }
      ],
      "name": "Approval",
      "type": "event"
    },
    {
      "anonymous": false,
      "inputs": [
        {
          "indexed": true,
          "internalType": "address",
          "name": "owner",
          "type": "address"
        },
        {
          "indexed": true,
          "internalType": "address",
          "name": "operator",
          "type": "address"
        },
        {
          "indexed": false,
          "internalType": "bool",
          "name": "approved",
          "type": "bool"
        }
      ],
      "name": "ApprovalForAll",
      "type": "event"
    },
    {
      "anonymous": false,
      "inputs": [
        {
          "indexed": true,
          "internalType": "uint256",
          "name": "fromTokenId",
          "type": "uint256"
        },
        {
          "indexed": false,
          "internalType": "uint256",
          "name": "toTokenId",
          "type": "uint256"
        },
        {
          "indexed": true,
          "internalType": "address",
          "name": "from",
          "type": "address"
        },
        {
          "indexed": true,
          "internalType": "address",
          "name": "to",
          "type": "address"
        }
      ],
      "name": "ConsecutiveTransfer",
      "type": "event"
    },
    {
      "anonymous": false,
      "inputs": [
        {
          "indexed": true,
          "internalType": "address",
          "name": "previousOwner",
          "type": "address"
        },
        {
          "indexed": true,
          "internalType": "address",
          "name": "newOwner",
          "type": "address"
        }
      ],
      "name": "OwnershipTransferred",
      "type": "event"
    },
    {
      "anonymous": false,
      "inputs": [
        {
          "indexed": true,
          "internalType": "address",
          "name": "from",
          "type": "address"
        },
        {
          "indexed": true,
          "internalType": "address",
          "name": "to",
          "type": "address"
        },
        {
          "indexed": true,
          "internalType": "uint256",
          "name": "tokenId",
          "type": "uint256"
        }
      ],
      "name": "Transfer",
      "type": "event"
    },
    {
      "inputs": [
        {
          "internalType": "address",
          "name": "to",
          "type": "address"
        },
        {
          "internalType": "uint256",
          "name": "tokenId",
          "type": "uint256"
        }
      ],
      "name": "approve",
      "outputs": [],
      "stateMutability": "payable",
      "type": "function"
    },
    {
      "inputs": [
        {
          "internalType": "address",
          "name": "owner",
          "type": "address"
        }
      ],
      "name": "balanceOf",
      "outputs": [
        {
          "internalType": "uint256",
          "name": "",
          "type": "uint256"
        }
      ],
      "stateMutability": "view",
      "type": "function"
    },
    {
      "inputs": [
        {
          "internalType": "uint256",
          "name": "tokenId",
          "type": "uint256"
        }
      ],
      "name": "getApproved",
      "outputs": [
        {
          "internalType": "address",
          "name": "",
          "type": "address"
        }
      ],
      "stateMutability": "view",
      "type": "function"
    },
    {
      "inputs": [
        {
          "internalType": "address",
          "name": "owner",
          "type": "address"
        },
        {
          "internalType": "address",
          "name": "operator",
          "type": "address"
        }
      ],
      "name": "isApprovedForAll",
      "outputs": [
        {
          "internalType": "bool",
          "name": "",
          "type": "bool"
        }
      ],
      "stateMutability": "view",
      "type": "function"
    },
    {
      "inputs": [
        {
          "internalType": "address",
          "name": "to",
          "type": "address"
        },
        {
          "internalType": "uint256",
          "name": "quantity",
          "type": "uint256"
        }
      ],
      "name": "mintBadges",
      "outputs": [],
      "stateMutability": "nonpayable",
      "type": "function"
    },
    {
      "inputs": [],
      "name": "minterContract",
      "outputs": [
        {
          "internalType": "address",
          "name": "",
          "type": "address"
        }
      ],
      "stateMutability": "view",
      "type": "function"
    },
    {
      "inputs": [],
      "name": "name",
      "outputs": [
        {
          "internalType": "string",
          "name": "",
          "type": "string"
        }
      ],
      "stateMutability": "view",
      "type": "function"
    },
    {
      "inputs": [],
      "name": "owner",
      "outputs": [
        {
          "internalType": "address",
          "name": "",
          "type": "address"
        }
      ],
      "stateMutability": "view",
      "type": "function"
    },
    {
      "inputs": [
        {
          "internalType": "uint256",
          "name": "tokenId",
          "type": "uint256"
        }
      ],
      "name": "ownerOf",
      "outputs": [
        {
          "internalType": "address",
          "name": "",
          "type": "address"
        }
      ],
      "stateMutability": "view",
      "type": "function"
    },
    {
      "inputs": [],
      "name": "renounceOwnership",
      "outputs": [],
      "stateMutability": "nonpayable",
      "type": "function"
    },
    {
      "inputs": [
        {
          "internalType": "uint256",
          "name": "tokenId",
          "type": "uint256"
        },
        {
          "internalType": "uint256",
          "name": "salePrice",
          "type": "uint256"
        }
      ],
      "name": "royaltyInfo",
      "outputs": [
        {
          "internalType": "address",
          "name": "receiver",
          "type": "address"
        },
        {
          "internalType": "uint256",
          "name": "amount",
          "type": "uint256"
        }
      ],
      "stateMutability": "view",
      "type": "function"
    },
    {
      "inputs": [
        {
          "internalType": "address",
          "name": "from",
          "type": "address"
        },
        {
          "internalType": "address",
          "name": "to",
          "type": "address"
        },
        {
          "internalType": "uint256",
          "name": "tokenId",
          "type": "uint256"
        }
      ],
      "name": "safeTransferFrom",
      "outputs": [],
      "stateMutability": "payable",
      "type": "function"
    },
    {
      "inputs": [
        {
          "internalType": "address",
          "name": "from",
          "type": "address"
        },
        {
          "internalType": "address",
          "name": "to",
          "type": "address"
        },
        {
          "internalType": "uint256",
          "name": "tokenId",
          "type": "uint256"
        },
        {
          "internalType": "bytes",
          "name": "_data",
          "type": "bytes"
        }
      ],
      "name": "safeTransferFrom",
      "outputs": [],
      "stateMutability": "payable",
      "type": "function"
    },
    {
      "inputs": [
        {
          "internalType": "address",
          "name": "operator",
          "type": "address"
        },
        {
          "internalType": "bool",
          "name": "approved",
          "type": "bool"
        }
      ],
      "name": "setApprovalForAll",
      "outputs": [],
      "stateMutability": "nonpayable",
      "type": "function"
    },
    {
      "inputs": [
        {
          "internalType": "string",
          "name": "baseURI_",
          "type": "string"
        }
      ],
      "name": "setBaseURI",
      "outputs": [],
      "stateMutability": "nonpayable",
      "type": "function"
    },
    {
      "inputs": [
        {
          "internalType": "address",
          "name": "minter_",
          "type": "address"
        }
      ],
      "name": "setMinter",
      "outputs": [],
      "stateMutability": "nonpayable",
      "type": "function"
    },
    {
      "inputs": [
        {
          "internalType": "address",
          "name": "receiver",
          "type": "address"
        },
        {
          "internalType": "uint96",
          "name": "feeNumerator",
          "type": "uint96"
        }
      ],
      "name": "setRoyaltyInfo",
      "outputs": [],
      "stateMutability": "nonpayable",
      "type": "function"
    },
    {
      "inputs": [
        {
          "internalType": "bytes4",
          "name": "interfaceId",
          "type": "bytes4"
        }
      ],
      "name": "supportsInterface",
      "outputs": [
        {
          "internalType": "bool",
          "name": "",
          "type": "bool"
        }
      ],
      "stateMutability": "view",
      "type": "function"
    },
    {
      "inputs": [],
      "name": "symbol",
      "outputs": [
        {
          "internalType": "string",
          "name": "",
          "type": "string"
        }
      ],
      "stateMutability": "view",
      "type": "function"
    },
    {
      "inputs": [
        {
          "internalType": "uint256",
          "name": "tokenId",
          "type": "uint256"
        }
      ],
      "name": "tokenURI",
      "outputs": [
        {
          "internalType": "string",
          "name": "",
          "type": "string"
        }
      ],
      "stateMutability": "view",
      "type": "function"
    },
    {
      "inputs": [],
      "name": "totalSupply",
      "outputs": [
        {
          "internalType": "uint256",
          "name": "result",
          "type": "uint256"
        }
      ],
      "stateMutability": "view",
      "type": "function"
    },
    {
      "inputs": [
        {
          "internalType": "address",
          "name": "from",
          "type": "address"
        },
        {
          "internalType": "address",
          "name": "to",
          "type": "address"
        },
        {
          "internalType": "uint256",
          "name": "tokenId",
          "type": "uint256"
        }
      ],
      "name": "transferFrom",
      "outputs": [],
      "stateMutability": "payable",
      "type": "function"
    },
    {
      "inputs": [
        {
          "internalType": "address",
          "name": "newOwner",
          "type": "address"
        }
      ],
      "name": "transferOwnership",
      "outputs": [],
      "stateMutability": "nonpayable",
      "type": "function"
    }
  ],
  "bytecode": "0x608060405234620001d557620018ba80380390816200001e8162000210565b9283928339602092839181010312620001d557516001600160a01b038116808203620001d5576200004e62000236565b927f416d657269636120506172747920426164676500000000000000000000000000818501526200007e62000247565b6341504f4360e01b82820152845190916001600160401b038211620001cf57620000b582620000af60025462000258565b62000295565b80601f83116001146200013a57508190620000f09495966000926200012e575b50508160011b916000199060031b1c19161760025562000347565b6000805515620001155762000105906200043a565b6040516114369081620004848239f35b604051631e4fbdf760e01b815260006004820152602490fd5b015190503880620000d5565b6002600052601f198316969091907f405787fa12a823e0f2b7631cc41b3ba8828b3321ca811111fa75cd3aa3bb5ace926000905b898210620001b657505090839291600194620000f0979899106200019c575b505050811b0160025562000347565b015160001960f88460031b161c191690553880806200018d565b806001859682949686015181550195019301906200016e565b620001da565b600080fd5b634e487b7160e01b600052604160045260246000fd5b60408051919082016001600160401b03811183821017620001cf57604052565b6040519190601f01601f191682016001600160401b03811183821017620001cf57604052565b62000240620001f0565b9060138252565b62000251620001f0565b9060048252565b90600182811c921680156200028a575b60208310146200027457565b634e487b7160e01b600052602260045260246000fd5b91607f169162000268565b601f8111620002a2575050565b6000906002825260208220906020601f850160051c83019410620002e3575b601f0160051c01915b828110620002d757505050565b818155600101620002ca565b9092508290620002c1565b601f8111620002fb575050565b6000906003825260208220906020601f850160051c830194106200033c575b601f0160051c01915b8281106200033057505050565b81815560010162000323565b90925082906200031a565b80519091906001600160401b038111620001cf5762000373816200036d60035462000258565b620002ee565b602080601f8311600114620003b25750819293600092620003a6575b50508160011b916000199060031b1c191617600355565b0151905038806200038f565b6003600052601f198316949091907fc2575a0e9e593c00f959f8c92f12db2869c3395a3b0502d05e2516446f71f85b926000905b8782106200042157505083600195961062000407575b505050811b01600355565b015160001960f88460031b161c19169055388080620003fc565b80600185968294968601518155019501930190620003e6565b600980546001600160a01b039283166001600160a01b0319821681179092559091167f8be0079c531659141344cd1fd0a4f28419497f9722a3daafe3b4186f6b6457e0600080a356fe6080604052600436101561001257600080fd5b60003560e01c806301ffc9a71461018757806302fa7c471461018257806306fdde031461017d578063081812fc14610178578063095ea7b31461017357806311118e761461016e57806318160ddd1461016957806323b872dd146101645780632a55205a1461015f57806342842e0e1461015a57806355f804b3146101555780636352211e1461015057806370a082311461014b578063715018a6146101465780638da5cb5b1461014157806392f002331461013c57806395d89b4114610137578063a22cb46514610132578063b88d4fde1461012d578063c87b56dd14610128578063e985e9c514610123578063f2fde38b1461011e5763fca3b5aa1461011957600080fd5b610e5f565b610dd6565b610d79565b610c37565b610bb3565b610a90565b6109e9565b6109c0565b610997565b610939565b6108de565b6108af565b61077c565b610759565b6106c3565b6106b1565b610659565b61054c565b61049b565b610448565b610363565b610225565b6101a3565b6001600160e01b031981160361019e57565b600080fd5b3461019e57602036600319011261019e5760206004356101c28161018c565b63ffffffff60e01b1663152a902d60e11b81149081156101e8575b506040519015158152f35b6301ffc9a760e01b149050386101dd565b600435906001600160a01b038216820361019e57565b602435906001600160a01b038216820361019e57565b3461019e57604036600319011261019e5761023e6101f9565b602435906001600160601b03821680830361019e5761025b610ea2565b6127108082116102e95750506001600160a01b038116156102d0576102a76102ce92610297610288610b77565b6001600160a01b039094168452565b6001600160601b03166020830152565b805160209091015160a01b6001600160a01b0319166001600160a01b039190911617600a55565b005b604051635b6cc80560e11b815260006004820152602490fd5b6044925060405191636f483d0960e01b835260048301526024820152fd5b60005b83811061031a5750506000910152565b818101518382015260200161030a565b9060209161034381518092818552858086019101610307565b601f01601f1916010190565b90602061036092818152019061032a565b90565b3461019e5760008060031936011261044557604051908060025461038681610ee4565b8085529160019180831690811561041b57506001146103c0575b6103bc856103b081870382610b55565b6040519182918261034f565b0390f35b9250600283527f405787fa12a823e0f2b7631cc41b3ba8828b3321ca811111fa75cd3aa3bb5ace5b8284106104035750505081016020016103b0826103bc6103a0565b805460208587018101919091529093019281016103e8565b8695506103bc969350602092506103b094915060ff191682840152151560051b82010192936103a0565b80fd5b3461019e57602036600319011261019e5760043561046581611044565b1561048a576000526006602052602060018060a01b0360406000205416604051908152f35b6333d1c03960e21b60005260046000fd5b604036600319011261019e576104af6101f9565b6001600160a01b039060243590826104c683610fb9565b1680330361051a575b600093838552600660205260408520921691826001600160601b0360a01b8254161790557f8c5be1e5ebec7d5bd14f71427d1e84f3dd0314c0f7b2291e5b200ac8c7c3b9258480a480f35b600081815260076020908152604080832033845290915290205460ff166104cf576367d9dca160e11b60005260046000fd5b3461019e57604036600319011261019e576105656101f9565b600c54602435906001600160a01b039081163303610647576000928354928015610642576105ce60019383169284831460e11b4260a01b1784176105b3876000526004602052604060002090565b556001600160a01b0316600090815260056020526040902090565b6801000000000000000182028154019055811561063d578301929180805b6105f8575b8585815580f35b1561062c575b84818484887fddf252ad1be2c89b69c2b068fc378daa952ba7f163c4a11628f55a4df523b3ef8180a46105ec565b809201918383036105fe57806105f1565b6113ad565b61139c565b604051633e34a41b60e21b8152600490fd5b3461019e57600036600319011261019e5760206000546001549003604051908152f35b606090600319011261019e576001600160a01b0390600435828116810361019e5791602435908116810361019e579060443590565b6102ce6106bd3661067c565b91611087565b3461019e57604036600319011261019e57602435600435600052600b6020526040600020549060018060a01b038083169260a01c90831561073f575b506001600160601b03169081810291818304149015171561073a57604080516001600160a01b03939093168352612710909104602083015290f35b610ece565b600a54908116935060a01c90506001600160601b036106ff565b6102ce6107653661067c565b906040519261077384610b34565b60008452611217565b3461019e5760208060031936011261019e5767ffffffffffffffff60043581811161019e573660238201121561019e57806004013591821161019e576024903682848301011161019e576107ce610ea2565b6107e2836107dd600d54610ee4565b610f1e565b600093601f84116001146108235750928293600093610816575b505050600019600383901b1c191660019190911b17600d55005b01013590503880806107fc565b91601f19841694610856600d6000527fd7b6990105719101dabeb77144f2a3385c8033acd3af97e9423a695e81ad1eb590565b9381905b8782106108955750508460019610610879575b50505050811b01600d55005b60001960f88660031b161c19920101351690553880808061086d565b80600184978683959689010135815501960192019061085a565b3461019e57602036600319011261019e5760206001600160a01b036108d5600435610fb9565b16604051908152f35b3461019e57602036600319011261019e576001600160a01b036108ff6101f9565b168015610928576000526005602052602067ffffffffffffffff60406000205416604051908152f35b6323d3ad8160e21b60005260046000fd5b3461019e5760008060031936011261044557610953610ea2565b600980546001600160a01b0319811690915581906001600160a01b03167f8be0079c531659141344cd1fd0a4f28419497f9722a3daafe3b4186f6b6457e08280a380f35b3461019e57600036600319011261019e576009546040516001600160a01b039091168152602090f35b3461019e57600036600319011261019e57600c546040516001600160a01b039091168152602090f35b3461019e57600080600319360112610445576040519080600354610a0c81610ee4565b8085529160019180831690811561041b5750600114610a35576103bc856103b081870382610b55565b9250600383527fc2575a0e9e593c00f959f8c92f12db2869c3395a3b0502d05e2516446f71f85b5b828410610a785750505081016020016103b0826103bc6103a0565b80546020858701810191909152909301928101610a5d565b3461019e57604036600319011261019e57610aa96101f9565b6024359081151580920361019e573360009081526007602090815260408083206001600160a01b0385168452909152902060ff1981541660ff841617905560405191825260018060a01b0316907f17307eab39ab6107e8899845ad3d59bd9653f200f220920489ca2b5937696c3160203392a3005b634e487b7160e01b600052604160045260246000fd5b6020810190811067ffffffffffffffff821117610b5057604052565b610b1e565b90601f8019910116810190811067ffffffffffffffff821117610b5057604052565b604051906040820182811067ffffffffffffffff821117610b5057604052565b67ffffffffffffffff8111610b5057601f01601f191660200190565b608036600319011261019e57610bc76101f9565b610bcf61020f565b6064359167ffffffffffffffff831161019e573660238401121561019e57826004013591610bfc83610b97565b92610c0a6040519485610b55565b808452366024828701011161019e5760208160009260246102ce9801838801378501015260443591611217565b3461019e5760208060031936011261019e57600435610c5581611044565b15610d68576040519082826000600d54610c6e81610ee4565b80845290600190818116908115610d475750600114610ce8575b5050610c9692500383610b55565b815115610cd5576103bc92610cc7610cb06103b09361135d565b610cc1604051958694850190610fa2565b90610fa2565b03601f198101835282610b55565b5050506103bc610ce3610f8f565b6103b0565b90939150600d6000527fd7b6990105719101dabeb77144f2a3385c8033acd3af97e9423a695e81ad1eb5936000915b818310610d2f575087945050820101610c9638610c88565b85548884018501529485019487945091830191610d17565b915050610c9694925060ff191682840152151560051b820101859238610c88565b630a14c4b560e41b60005260046000fd5b3461019e57604036600319011261019e57602060ff610dca610d996101f9565b610da161020f565b6001600160a01b0391821660009081526007865260408082209290931681526020919091522090565b54166040519015158152f35b3461019e57602036600319011261019e57610def6101f9565b610df7610ea2565b6001600160a01b03908116908115610e4657600954826001600160601b0360a01b821617600955167f8be0079c531659141344cd1fd0a4f28419497f9722a3daafe3b4186f6b6457e0600080a3005b604051631e4fbdf760e01b815260006004820152602490fd5b3461019e57602036600319011261019e57610e786101f9565b610e80610ea2565b600c80546001600160a01b0319166001600160a01b0392909216919091179055005b6009546001600160a01b03163303610eb657565b60405163118cdaa760e01b8152336004820152602490fd5b634e487b7160e01b600052601160045260246000fd5b90600182811c92168015610f14575b6020831014610efe57565b634e487b7160e01b600052602260045260246000fd5b91607f1691610ef3565b601f8111610f2a575050565b600090600d82527fd7b6990105719101dabeb77144f2a3385c8033acd3af97e9423a695e81ad1eb5906020601f850160051c83019410610f85575b601f0160051c01915b828110610f7a57505050565b818155600101610f6e565b9092508290610f65565b60405190610f9c82610b34565b60008252565b90610fb560209282815194859201610307565b0190565b610fcd816000526004602052604060002090565b54908115610fe45750600160e01b81166113bd5790565b90506000908154811015611035575b6000190160008181526004602052604090205490811561102e5750600160e01b81161561102957636f96cda160e11b8252600482fd5b905090565b9050610ff3565b636f96cda160e11b8252600482fd5b90600091600080548210611056575050565b92505b808352600460205260408320548061107b5750801561073a5760001901611059565b600160e01b1615925050565b91909161109382610fb9565b6001600160a01b039182169390919081831685900361121257600084815260066020526040902080546110d96001600160a01b03881633908114908314171590565b1590565b6111c4575b6111ba575b506001600160a01b0385811660009081526005602090815260408083208054600019019055928416825282822080546001019055868252600490522091169384929091600160e11b904260a01b851782179055811615611170575b507fddf252ad1be2c89b69c2b068fc378daa952ba7f163c4a11628f55a4df523b3ef600080a41561116b57565b6113ef565b60018401611188816000526004602052604060002090565b5415611195575b5061113e565b600054811461118f576111b2906000526004602052604060002090565b55388061118f565b60009055386110e3565b6112086110d5611201336111ea8b60018060a01b03166000526007602052604060002090565b9060018060a01b0316600052602052604060002090565b5460ff1690565b156110de576113de565b6113ce565b929190611225828286611087565b803b611232575b50505050565b61123b9361129f565b15611249573880808061122c565b6368d2bf6b60e11b60005260046000fd5b9081602091031261019e57516103608161018c565b3d1561129a573d9061128082610b97565b9161128e6040519384610b55565b82523d6000602084013e565b606090565b604051630a85bd0160e11b8082523360048301526001600160a01b039283166024830152604482019490945260806064820152929360209284929091839160009183906112f090608483019061032a565b0393165af16000918161132d575b5061131f5761130b61126f565b80511561131a57805190602001fd5b611249565b6001600160e01b0319161490565b61134f91925060203d8111611356575b6113478183610b55565b81019061125a565b90386112fe565b503d61133d565b9060405160a08101604052608081019260008452925b6000190192600a90603082820601855304928361137357809350608091030191601f1901918252565b63b562e8dd60e01b60005260046000fd5b622e076360e81b60005260046000fd5b636f96cda160e11b60005260046000fd5b62a1148160e81b60005260046000fd5b632ce44b5f60e11b60005260046000fd5b633a954ecd60e21b60005260046000fdfea2646970667358221220286227a70a3adc5279ea66b7092c6940b724b74574585dc71f8e141bdd8153cb64736f6c63430008140033",
  "linkReferences": {},
  "deployedLinkReferences": {}
}