{
  "_format": "hh-sol-artifact-1",
  "contractName": "BadgeMinter",
  "sourceName": "contracts/BadgeMinter.sol",
  "abi": [
    {
      "inputs": [
        {
          "internalType": "address",
          "name": "initialOwner",
          "type": "address"
        },
        {
          "internalType": "address",
          "name": "_badgeContractAddress",
          "type": "address"
        },
        {
          "internalType": "address",
          "name": "_usdcTokenAddress",
          "type": "address"
        },
        {
          "internalType": "address",
          "name": "_initialTreasury",
          "type": "address"
        }
      ],
      "stateMutability": "nonpayable",
      "type": "constructor"
    },
    {
      "inputs": [],
      "name": "InvalidQuantity",
      "type": "error"
    },
    {
      "inputs": [],
      "name": "MaxSupplyReached",
      "type": "error"
    },
    {
      "inputs": [],
      "name": "NoTiersConfigured",
      "type": "error"
    },
    {
      "inputs": [],
      "name": "NotEnoughAllowance",
      "type": "error"
    },
    {
      "inputs": [
        {
          "internalType": "address",
          "name": "owner",
          "type": "address"
        }
      ],
      "name": "OwnableInvalidOwner",
      "type": "error"
    },
    {
      "inputs": [
        {
          "internalType": "address",
          "name": "account",
          "type": "address"
        }
      ],
      "name": "OwnableUnauthorizedAccount",
      "type": "error"
    },
    {
      "inputs": [],
      "name": "TransferFromFailed",
      "type": "error"
    },
    {
      "anonymous": false,
      "inputs": [
        {
          "indexed": true,
          "internalType": "address",
          "name": "buyer",
          "type": "address"
        },
        {
          "indexed": false,
          "internalType": "uint256",
          "name": "quantity",
          "type": "uint256"
        },
        {
          "indexed": false,
          "internalType": "uint256",
          "name": "totalPrice",
          "type": "uint256"
        }
      ],
      "name": "BadgesPurchased",
      "type": "event"
    },
    {
      "anonymous": false,
      "inputs": [
        {
          "indexed": true,
          "internalType": "address",
          "name": "previousOwner",
          "type": "address"
        },
        {
          "indexed": true,
          "internalType": "address",
          "name": "newOwner",
          "type": "address"
        }
      ],
      "name": "OwnershipTransferred",
      "type": "event"
    },
    {
      "anonymous": false,
      "inputs": [],
      "name": "PriceTiersUpdated",
      "type": "event"
    },
    {
      "anonymous": false,
      "inputs": [
        {
          "indexed": true,
          "internalType": "address",
          "name": "newTreasury",
          "type": "address"
        }
      ],
      "name": "TreasuryWalletUpdated",
      "type": "event"
    },
    {
      "inputs": [],
      "name": "badgeContract",
      "outputs": [
        {
          "internalType": "contract AmericaPartyBadge",
          "name": "",
          "type": "address"
        }
      ],
      "stateMutability": "view",
      "type": "function"
    },
    {
      "inputs": [
        {
          "internalType": "uint256",
          "name": "_currentSupply",
          "type": "uint256"
        },
        {
          "internalType": "uint256",
          "name": "_quantity",
          "type": "uint256"
        }
      ],
      "name": "getPriceForQuantity",
      "outputs": [
        {
          "internalType": "uint256",
          "name": "totalPrice",
          "type": "uint256"
        },
        {
          "internalType": "uint256",
          "name": "finalSupply",
          "type": "uint256"
        }
      ],
      "stateMutability": "view",
      "type": "function"
    },
    {
      "inputs": [],
      "name": "owner",
      "outputs": [
        {
          "internalType": "address",
          "name": "",
          "type": "address"
        }
      ],
      "stateMutability": "view",
      "type": "function"
    },
    {
      "inputs": [
        {
          "internalType": "uint256",
          "name": "",
          "type": "uint256"
        }
      ],
      "name": "priceTiers",
      "outputs": [
        {
          "internalType": "uint256",
          "name": "pricePerToken",
          "type": "uint256"
        },
        {
          "internalType": "uint256",
          "name": "maxSupply",
          "type": "uint256"
        }
      ],
      "stateMutability": "view",
      "type": "function"
    },
    {
      "inputs": [
        {
          "internalType": "uint256",
          "name": "_quantity",
          "type": "uint256"
        }
      ],
      "name": "purchaseBadges",
      "outputs": [],
      "stateMutability": "nonpayable",
      "type": "function"
    },
    {
      "inputs": [],
      "name": "renounceOwnership",
      "outputs": [],
      "stateMutability": "nonpayable",
      "type": "function"
    },
    {
      "inputs": [
        {
          "components": [
            {
              "internalType": "uint256",
              "name": "pricePerToken",
              "type": "uint256"
            },
            {
              "internalType": "uint256",
              "name": "maxSupply",
              "type": "uint256"
            }
          ],
          "internalType": "struct BadgeMinter.PriceTier[]",
          "name": "_tiers",
          "type": "tuple[]"
        }
      ],
      "name": "setPriceTiers",
      "outputs": [],
      "stateMutability": "nonpayable",
      "type": "function"
    },
    {
      "inputs": [],
      "name": "totalMinted",
      "outputs": [
        {
          "internalType": "uint256",
          "name": "",
          "type": "uint256"
        }
      ],
      "stateMutability": "view",
      "type": "function"
    },
    {
      "inputs": [
        {
          "internalType": "address",
          "name": "newOwner",
          "type": "address"
        }
      ],
      "name": "transferOwnership",
      "outputs": [],
      "stateMutability": "nonpayable",
      "type": "function"
    },
    {
      "inputs": [],
      "name": "treasuryWallet",
      "outputs": [
        {
          "internalType": "address",
          "name": "",
          "type": "address"
        }
      ],
      "stateMutability": "view",
      "type": "function"
    },
    {
      "inputs": [
        {
          "internalType": "address",
          "name": "_newTreasury",
          "type": "address"
        }
      ],
      "name": "updateTreasury",
      "outputs": [],
      "stateMutability": "nonpayable",
      "type": "function"
    },
    {
      "inputs": [],
      "name": "usdcToken",
      "outputs": [
        {
          "internalType": "contract IERC20",
          "name": "",
          "type": "address"
        }
      ],
      "stateMutability": "view",
      "type": "function"
    }
  ],
  "bytecode": "0x60c03461011c57601f610be438819003918201601f19168301916001600160401b038311848410176101215780849260809460405283398101031261011c5761004781610137565b9061005460208201610137565b9161006d606061006660408501610137565b9301610137565b6001600160a01b0391821692831561010357600080546001600160a01b03198082168717835560405197909686949385938416907f8be0079c531659141344cd1fd0a4f28419497f9722a3daafe3b4186f6b6457e09080a3166080521660a05216906001541617600155610a98908161014c8239608051818181610436015261068e015260a05181818161060a01526108450152f35b604051631e4fbdf760e01b815260006004820152602490fd5b600080fd5b634e487b7160e01b600052604160045260246000fd5b51906001600160a01b038216820361011c5756fe608060408181526004908136101561001657600080fd5b600092833560e01c90816311eac85514610831575080631d4bba2c1461058e5780634626402b14610565578063715018a61461050b5780637f51bb1f146104655780638d6d4925146104215780638da5cb5b146103f957806390dcbeff146103bb578063a2309ff814610398578063d23d13eb14610172578063e875d681146101425763f2fde38b146100a857600080fd5b3461013e57602036600319011261013e576001600160a01b0382358181169391929084900361013a576100d96108c4565b8315610124575050600054826bffffffffffffffffffffffff60a01b821617600055167f8be0079c531659141344cd1fd0a4f28419497f9722a3daafe3b4186f6b6457e0600080a380f35b51631e4fbdf760e01b8152908101849052602490fd5b8480fd5b8280fd5b50913461016f578260031936011261016f5750610163906024359035610967565b82519182526020820152f35b80fd5b50903461013e576020806003193601126103945767ffffffffffffffff9282358481116103905736602382011215610390578084013594851161039057602493848201918536918860061b01011161038c576101cc6108c4565b60015b86811061030557506801000000000000000086116102f35760029485549187875582881061026d575b505050917f405787fa12a823e0f2b7631cc41b3ba8828b3321ca811111fa75cd3aa3bb5ace9086935b86851061025057877fe691743f810e05f160f6e3e7a12661e20c3267fd61dd1be60dcebac2f008dbff8180a180f35b858482600193358655848101358487015501930194019391610221565b6001600160ff1b0383811684036102e157881688036102d0575050847f405787fa12a823e0f2b7631cc41b3ba8828b3321ca811111fa75cd3aa3bb5ace9160011b8201918760011b015b828110156101f8578881558860018201550185906102b7565b634e487b7160e01b89526011905287fd5b50634e487b7160e01b89526011905287fd5b634e487b7160e01b8752604190528386fd5b84610311828986610a52565b0135600019820182811161037a5761032b87918a87610a52565b013510156103415761033c9061094b565b6101cf565b835162461bcd60e51b815280830186905260148188015273151a595c9cc81b5d5cdd081899481cdbdc9d195960621b6044820152606490fd5b634e487b7160e01b8a5260118452878afd5b8680fd5b8580fd5b8380fd5b8382346103b757816003193601126103b7576020906003549051908152f35b5080fd5b509190346103b75760203660031901126103b757359060025482101561016f57506103e590610874565b506001815491015482519182526020820152f35b8382346103b757816003193601126103b757905490516001600160a01b039091168152602090f35b8382346103b757816003193601126103b757517f00000000000000000000000000000000000000000000000000000000000000006001600160a01b03168152602090f35b50903461013e57602036600319011261013e5780356001600160a01b0381169290839003610394576104956108c4565b82156104d6575050600180546001600160a01b031916821790557f97c79b3848e51f57983ac89e4403452655c8d83ceba8199011de63a74f60d1a78280a280f35b906020606492519162461bcd60e51b8352820152600f60248201526e496e76616c6964206164647265737360881b6044820152fd5b833461016f578060031936011261016f576105246108c4565b600080546001600160a01b0319811682556001600160a01b03167f8be0079c531659141344cd1fd0a4f28419497f9722a3daafe3b4186f6b6457e08280a380f35b8382346103b757816003193601126103b75760015490516001600160a01b039091168152602090f35b508290346103b7576020908160031936011261013e578335918215610821576105b983600354610967565b60029291925480156108115760001981019081116107fe576105dc600191610874565b50015481116107ee576003558251636eb1769f60e11b815233878201523060248201526001600160a01b03907f00000000000000000000000000000000000000000000000000000000000000008216908381604481855afa9081156107e45790859189916107af575b501061079f5782826001541660648a8a895195869485936323b872dd60e01b8552339085015260248401528960448401525af190811561079557879161075f575b501561074f577f000000000000000000000000000000000000000000000000000000000000000016803b15610390578580916044865180948193630888c73b60e11b8352338d8401528a60248401525af1801561074557610714575b50825193845283015233917f1ff5fe1dbbb532b5afdf63b191c99a0130c285a73a44332537e1a6174b3c3c819190a280f35b67ffffffffffffffff819692961161073257835293945084866106e2565b634e487b7160e01b825260418752602482fd5b84513d88823e3d90fd5b8351631e4e7d0960e21b81528790fd5b90508281813d831161078e575b6107768183610913565b8101031261038c5751801515810361038c5788610686565b503d61076c565b85513d89823e3d90fd5b8451634fd3af0760e01b81528890fd5b809250858092503d83116107dd575b6107c88183610913565b810103126107d9578490518a610645565b8780fd5b503d6107be565b86513d8a823e3d90fd5b835163d05cb60960e01b81528790fd5b634e487b7160e01b875260118852602487fd5b8451630b85273160e11b81528890fd5b815163524f409b60e01b81528590fd5b8490346103b757816003193601126103b7577f00000000000000000000000000000000000000000000000000000000000000006001600160a01b03168152602090f35b6002548110156108ae57600260005260011b7f405787fa12a823e0f2b7631cc41b3ba8828b3321ca811111fa75cd3aa3bb5ace0190600090565b634e487b7160e01b600052603260045260246000fd5b6000546001600160a01b031633036108d857565b60405163118cdaa760e01b8152336004820152602490fd5b919082039182116108fd57565b634e487b7160e01b600052601160045260246000fd5b90601f8019910116810190811067ffffffffffffffff82111761093557604052565b634e487b7160e01b600052604160045260246000fd5b60001981146108fd5760010190565b919082018092116108fd57565b916000916000936002548015610a40578282875b838110610996575b505050506109939293945061095a565b90565b8215610a3b5760016109a782610874565b5001546109b382610874565b5054908084106109ce575b50506109c99061094b565b61097b565b836109dd919a9395949a6108f0565b91838311610a33575b818302918383041483151715610a1f5791610a1181610a0b610a17946109c99661095a565b9b61095a565b936108f0565b9290386109be565b634e487b7160e01b8b52601160045260248bfd5b8392506109e6565b610983565b604051630b85273160e11b8152600490fd5b91908110156108ae5760061b019056fea264697066735822122038910840be2bed186ee243b57954373a9d3a73a9aa74d2fc25c2d78b2539baf764736f6c63430008140033",
  "linkReferences": {},
  "deployedLinkReferences": {}
}