{
  "_format": "hh-sol-artifact-1",
  "contractName": "GovernorAlphaParty",
  "sourceName": "contracts/GovernorAlphaParty.sol",
  "abi": [
    {
      "inputs": [
        {
          "internalType": "address",
          "name": "_badgeVotingAdapterAddress",
          "type": "address"
        }
      ],
      "stateMutability": "nonpayable",
      "type": "constructor"
    },
    {
      "inputs": [],
      "name": "CheckpointUnorderedInsertion",
      "type": "error"
    },
    {
      "inputs": [],
      "name": "FailedCall",
      "type": "error"
    },
    {
      "inputs": [
        {
          "internalType": "address",
          "name": "voter",
          "type": "address"
        }
      ],
      "name": "GovernorAlreadyCastVote",
      "type": "error"
    },
    {
      "inputs": [
        {
          "internalType": "uint256",
          "name": "proposalId",
          "type": "uint256"
        }
      ],
      "name": "GovernorAlreadyQueuedProposal",
      "type": "error"
    },
    {
      "inputs": [],
      "name": "GovernorDisabledDeposit",
      "type": "error"
    },
    {
      "inputs": [
        {
          "internalType": "address",
          "name": "proposer",
          "type": "address"
        },
        {
          "internalType": "uint256",
          "name": "votes",
          "type": "uint256"
        },
        {
          "internalType": "uint256",
          "name": "threshold",
          "type": "uint256"
        }
      ],
      "name": "GovernorInsufficientProposerVotes",
      "type": "error"
    },
    {
      "inputs": [
        {
          "internalType": "uint256",
          "name": "targets",
          "type": "uint256"
        },
        {
          "internalType": "uint256",
          "name": "calldatas",
          "type": "uint256"
        },
        {
          "internalType": "uint256",
          "name": "values",
          "type": "uint256"
        }
      ],
      "name": "GovernorInvalidProposalLength",
      "type": "error"
    },
    {
      "inputs": [
        {
          "internalType": "uint256",
          "name": "quorumNumerator",
          "type": "uint256"
        },
        {
          "internalType": "uint256",
          "name": "quorumDenominator",
          "type": "uint256"
        }
      ],
      "name": "GovernorInvalidQuorumFraction",
      "type": "error"
    },
    {
      "inputs": [
        {
          "internalType": "address",
          "name": "voter",
          "type": "address"
        }
      ],
      "name": "GovernorInvalidSignature",
      "type": "error"
    },
    {
      "inputs": [],
      "name": "GovernorInvalidVoteParams",
      "type": "error"
    },
    {
      "inputs": [],
      "name": "GovernorInvalidVoteType",
      "type": "error"
    },
    {
      "inputs": [
        {
          "internalType": "uint256",
          "name": "votingPeriod",
          "type": "uint256"
        }
      ],
      "name": "GovernorInvalidVotingPeriod",
      "type": "error"
    },
    {
      "inputs": [
        {
          "internalType": "uint256",
          "name": "proposalId",
          "type": "uint256"
        }
      ],
      "name": "GovernorNonexistentProposal",
      "type": "error"
    },
    {
      "inputs": [
        {
          "internalType": "uint256",
          "name": "proposalId",
          "type": "uint256"
        }
      ],
      "name": "GovernorNotQueuedProposal",
      "type": "error"
    },
    {
      "inputs": [
        {
          "internalType": "address",
          "name": "account",
          "type": "address"
        }
      ],
      "name": "GovernorOnlyExecutor",
      "type": "error"
    },
    {
      "inputs": [],
      "name": "GovernorQueueNotImplemented",
      "type": "error"
    },
    {
      "inputs": [
        {
          "internalType": "address",
          "name": "proposer",
          "type": "address"
        }
      ],
      "name": "GovernorRestrictedProposer",
      "type": "error"
    },
    {
      "inputs": [
        {
          "internalType": "uint256",
          "name": "proposalId",
          "type": "uint256"
        },
        {
          "internalType": "address",
          "name": "account",
          "type": "address"
        }
      ],
      "name": "GovernorUnableToCancel",
      "type": "error"
    },
    {
      "inputs": [
        {
          "internalType": "uint256",
          "name": "proposalId",
          "type": "uint256"
        },
        {
          "internalType": "enum IGovernor.ProposalState",
          "name": "current",
          "type": "uint8"
        },
        {
          "internalType": "bytes32",
          "name": "expectedStates",
          "type": "bytes32"
        }
      ],
      "name": "GovernorUnexpectedProposalState",
      "type": "error"
    },
    {
      "inputs": [
        {
          "internalType": "address",
          "name": "account",
          "type": "address"
        },
        {
          "internalType": "uint256",
          "name": "currentNonce",
          "type": "uint256"
        }
      ],
      "name": "InvalidAccountNonce",
      "type": "error"
    },
    {
      "inputs": [],
      "name": "InvalidShortString",
      "type": "error"
    },
    {
      "inputs": [
        {
          "internalType": "uint8",
          "name": "bits",
          "type": "uint8"
        },
        {
          "internalType": "uint256",
          "name": "value",
          "type": "uint256"
        }
      ],
      "name": "SafeCastOverflowedUintDowncast",
      "type": "error"
    },
    {
      "inputs": [
        {
          "internalType": "string",
          "name": "str",
          "type": "string"
        }
      ],
      "name": "StringTooLong",
      "type": "error"
    },
    {
      "anonymous": false,
      "inputs": [],
      "name": "EIP712DomainChanged",
      "type": "event"
    },
    {
      "anonymous": false,
      "inputs": [
        {
          "indexed": false,
          "internalType": "uint256",
          "name": "proposalId",
          "type": "uint256"
        }
      ],
      "name": "ProposalCanceled",
      "type": "event"
    },
    {
      "anonymous": false,
      "inputs": [
        {
          "indexed": false,
          "internalType": "uint256",
          "name": "proposalId",
          "type": "uint256"
        },
        {
          "indexed": false,
          "internalType": "address",
          "name": "proposer",
          "type": "address"
        },
        {
          "indexed": false,
          "internalType": "address[]",
          "name": "targets",
          "type": "address[]"
        },
        {
          "indexed": false,
          "internalType": "uint256[]",
          "name": "values",
          "type": "uint256[]"
        },
        {
          "indexed": false,
          "internalType": "string[]",
          "name": "signatures",
          "type": "string[]"
        },
        {
          "indexed": false,
          "internalType": "bytes[]",
          "name": "calldatas",
          "type": "bytes[]"
        },
        {
          "indexed": false,
          "internalType": "uint256",
          "name": "voteStart",
          "type": "uint256"
        },
        {
          "indexed": false,
          "internalType": "uint256",
          "name": "voteEnd",
          "type": "uint256"
        },
        {
          "indexed": false,
          "internalType": "string",
          "name": "description",
          "type": "string"
        }
      ],
      "name": "ProposalCreated",
      "type": "event"
    },
    {
      "anonymous": false,
      "inputs": [
        {
          "indexed": false,
          "internalType": "uint256",
          "name": "proposalId",
          "type": "uint256"
        }
      ],
      "name": "ProposalExecuted",
      "type": "event"
    },
    {
      "anonymous": false,
      "inputs": [
        {
          "indexed": false,
          "internalType": "uint256",
          "name": "proposalId",
          "type": "uint256"
        },
        {
          "indexed": false,
          "internalType": "uint256",
          "name": "etaSeconds",
          "type": "uint256"
        }
      ],
      "name": "ProposalQueued",
      "type": "event"
    },
    {
      "anonymous": false,
      "inputs": [
        {
          "indexed": false,
          "internalType": "uint256",
          "name": "oldProposalThreshold",
          "type": "uint256"
        },
        {
          "indexed": false,
          "internalType": "uint256",
          "name": "newProposalThreshold",
          "type": "uint256"
        }
      ],
      "name": "ProposalThresholdSet",
      "type": "event"
    },
    {
      "anonymous": false,
      "inputs": [
        {
          "indexed": false,
          "internalType": "uint256",
          "name": "oldQuorumNumerator",
          "type": "uint256"
        },
        {
          "indexed": false,
          "internalType": "uint256",
          "name": "newQuorumNumerator",
          "type": "uint256"
        }
      ],
      "name": "QuorumNumeratorUpdated",
      "type": "event"
    },
    {
      "anonymous": false,
      "inputs": [
        {
          "indexed": true,
          "internalType": "address",
          "name": "voter",
          "type": "address"
        },
        {
          "indexed": false,
          "internalType": "uint256",
          "name": "proposalId",
          "type": "uint256"
        },
        {
          "indexed": false,
          "internalType": "uint8",
          "name": "support",
          "type": "uint8"
        },
        {
          "indexed": false,
          "internalType": "uint256",
          "name": "weight",
          "type": "uint256"
        },
        {
          "indexed": false,
          "internalType": "string",
          "name": "reason",
          "type": "string"
        }
      ],
      "name": "VoteCast",
      "type": "event"
    },
    {
      "anonymous": false,
      "inputs": [
        {
          "indexed": true,
          "internalType": "address",
          "name": "voter",
          "type": "address"
        },
        {
          "indexed": false,
          "internalType": "uint256",
          "name": "proposalId",
          "type": "uint256"
        },
        {
          "indexed": false,
          "internalType": "uint8",
          "name": "support",
          "type": "uint8"
        },
        {
          "indexed": false,
          "internalType": "uint256",
          "name": "weight",
          "type": "uint256"
        },
        {
          "indexed": false,
          "internalType": "string",
          "name": "reason",
          "type": "string"
        },
        {
          "indexed": false,
          "internalType": "bytes",
          "name": "params",
          "type": "bytes"
        }
      ],
      "name": "VoteCastWithParams",
      "type": "event"
    },
    {
      "anonymous": false,
      "inputs": [
        {
          "indexed": false,
          "internalType": "uint256",
          "name": "oldVotingDelay",
          "type": "uint256"
        },
        {
          "indexed": false,
          "internalType": "uint256",
          "name": "newVotingDelay",
          "type": "uint256"
        }
      ],
      "name": "VotingDelaySet",
      "type": "event"
    },
    {
      "anonymous": false,
      "inputs": [
        {
          "indexed": false,
          "internalType": "uint256",
          "name": "oldVotingPeriod",
          "type": "uint256"
        },
        {
          "indexed": false,
          "internalType": "uint256",
          "name": "newVotingPeriod",
          "type": "uint256"
        }
      ],
      "name": "VotingPeriodSet",
      "type": "event"
    },
    {
      "inputs": [],
      "name": "BALLOT_TYPEHASH",
      "outputs": [
        {
          "internalType": "bytes32",
          "name": "",
          "type": "bytes32"
        }
      ],
      "stateMutability": "view",
      "type": "function"
    },
    {
      "inputs": [],
      "name": "CLOCK_MODE",
      "outputs": [
        {
          "internalType": "string",
          "name": "",
          "type": "string"
        }
      ],
      "stateMutability": "view",
      "type": "function"
    },
    {
      "inputs": [],
      "name": "COUNTING_MODE",
      "outputs": [
        {
          "internalType": "string",
          "name": "",
          "type": "string"
        }
      ],
      "stateMutability": "pure",
      "type": "function"
    },
    {
      "inputs": [],
      "name": "EXTENDED_BALLOT_TYPEHASH",
      "outputs": [
        {
          "internalType": "bytes32",
          "name": "",
          "type": "bytes32"
        }
      ],
      "stateMutability": "view",
      "type": "function"
    },
    {
      "inputs": [
        {
          "internalType": "address[]",
          "name": "targets",
          "type": "address[]"
        },
        {
          "internalType": "uint256[]",
          "name": "values",
          "type": "uint256[]"
        },
        {
          "internalType": "bytes[]",
          "name": "calldatas",
          "type": "bytes[]"
        },
        {
          "internalType": "bytes32",
          "name": "descriptionHash",
          "type": "bytes32"
        }
      ],
      "name": "cancel",
      "outputs": [
        {
          "internalType": "uint256",
          "name": "",
          "type": "uint256"
        }
      ],
      "stateMutability": "nonpayable",
      "type": "function"
    },
    {
      "inputs": [
        {
          "internalType": "uint256",
          "name": "proposalId",
          "type": "uint256"
        },
        {
          "internalType": "uint8",
          "name": "support",
          "type": "uint8"
        }
      ],
      "name": "castVote",
      "outputs": [
        {
          "internalType": "uint256",
          "name": "",
          "type": "uint256"
        }
      ],
      "stateMutability": "nonpayable",
      "type": "function"
    },
    {
      "inputs": [
        {
          "internalType": "uint256",
          "name": "proposalId",
          "type": "uint256"
        },
        {
          "internalType": "uint8",
          "name": "support",
          "type": "uint8"
        },
        {
          "internalType": "address",
          "name": "voter",
          "type": "address"
        },
        {
          "internalType": "bytes",
          "name": "signature",
          "type": "bytes"
        }
      ],
      "name": "castVoteBySig",
      "outputs": [
        {
          "internalType": "uint256",
          "name": "",
          "type": "uint256"
        }
      ],
      "stateMutability": "nonpayable",
      "type": "function"
    },
    {
      "inputs": [
        {
          "internalType": "uint256",
          "name": "proposalId",
          "type": "uint256"
        },
        {
          "internalType": "uint8",
          "name": "support",
          "type": "uint8"
        },
        {
          "internalType": "string",
          "name": "reason",
          "type": "string"
        }
      ],
      "name": "castVoteWithReason",
      "outputs": [
        {
          "internalType": "uint256",
          "name": "",
          "type": "uint256"
        }
      ],
      "stateMutability": "nonpayable",
      "type": "function"
    },
    {
      "inputs": [
        {
          "internalType": "uint256",
          "name": "proposalId",
          "type": "uint256"
        },
        {
          "internalType": "uint8",
          "name": "support",
          "type": "uint8"
        },
        {
          "internalType": "string",
          "name": "reason",
          "type": "string"
        },
        {
          "internalType": "bytes",
          "name": "params",
          "type": "bytes"
        }
      ],
      "name": "castVoteWithReasonAndParams",
      "outputs": [
        {
          "internalType": "uint256",
          "name": "",
          "type": "uint256"
        }
      ],
      "stateMutability": "nonpayable",
      "type": "function"
    },
    {
      "inputs": [
        {
          "internalType": "uint256",
          "name": "proposalId",
          "type": "uint256"
        },
        {
          "internalType": "uint8",
          "name": "support",
          "type": "uint8"
        },
        {
          "internalType": "address",
          "name": "voter",
          "type": "address"
        },
        {
          "internalType": "string",
          "name": "reason",
          "type": "string"
        },
        {
          "internalType": "bytes",
          "name": "params",
          "type": "bytes"
        },
        {
          "internalType": "bytes",
          "name": "signature",
          "type": "bytes"
        }
      ],
      "name": "castVoteWithReasonAndParamsBySig",
      "outputs": [
        {
          "internalType": "uint256",
          "name": "",
          "type": "uint256"
        }
      ],
      "stateMutability": "nonpayable",
      "type": "function"
    },
    {
      "inputs": [],
      "name": "clock",
      "outputs": [
        {
          "internalType": "uint48",
          "name": "",
          "type": "uint48"
        }
      ],
      "stateMutability": "view",
      "type": "function"
    },
    {
      "inputs": [],
      "name": "eip712Domain",
      "outputs": [
        {
          "internalType": "bytes1",
          "name": "fields",
          "type": "bytes1"
        },
        {
          "internalType": "string",
          "name": "name",
          "type": "string"
        },
        {
          "internalType": "string",
          "name": "version",
          "type": "string"
        },
        {
          "internalType": "uint256",
          "name": "chainId",
          "type": "uint256"
        },
        {
          "internalType": "address",
          "name": "verifyingContract",
          "type": "address"
        },
        {
          "internalType": "bytes32",
          "name": "salt",
          "type": "bytes32"
        },
        {
          "internalType": "uint256[]",
          "name": "extensions",
          "type": "uint256[]"
        }
      ],
      "stateMutability": "view",
      "type": "function"
    },
    {
      "inputs": [
        {
          "internalType": "address[]",
          "name": "targets",
          "type": "address[]"
        },
        {
          "internalType": "uint256[]",
          "name": "values",
          "type": "uint256[]"
        },
        {
          "internalType": "bytes[]",
          "name": "calldatas",
          "type": "bytes[]"
        },
        {
          "internalType": "bytes32",
          "name": "descriptionHash",
          "type": "bytes32"
        }
      ],
      "name": "execute",
      "outputs": [
        {
          "internalType": "uint256",
          "name": "",
          "type": "uint256"
        }
      ],
      "stateMutability": "payable",
      "type": "function"
    },
    {
      "inputs": [
        {
          "internalType": "address[]",
          "name": "targets",
          "type": "address[]"
        },
        {
          "internalType": "uint256[]",
          "name": "values",
          "type": "uint256[]"
        },
        {
          "internalType": "bytes[]",
          "name": "calldatas",
          "type": "bytes[]"
        },
        {
          "internalType": "bytes32",
          "name": "descriptionHash",
          "type": "bytes32"
        }
      ],
      "name": "getProposalId",
      "outputs": [
        {
          "internalType": "uint256",
          "name": "",
          "type": "uint256"
        }
      ],
      "stateMutability": "view",
      "type": "function"
    },
    {
      "inputs": [
        {
          "internalType": "address",
          "name": "account",
          "type": "address"
        },
        {
          "internalType": "uint256",
          "name": "timepoint",
          "type": "uint256"
        }
      ],
      "name": "getVotes",
      "outputs": [
        {
          "internalType": "uint256",
          "name": "",
          "type": "uint256"
        }
      ],
      "stateMutability": "view",
      "type": "function"
    },
    {
      "inputs": [
        {
          "internalType": "address",
          "name": "account",
          "type": "address"
        },
        {
          "internalType": "uint256",
          "name": "timepoint",
          "type": "uint256"
        },
        {
          "internalType": "bytes",
          "name": "params",
          "type": "bytes"
        }
      ],
      "name": "getVotesWithParams",
      "outputs": [
        {
          "internalType": "uint256",
          "name": "",
          "type": "uint256"
        }
      ],
      "stateMutability": "view",
      "type": "function"
    },
    {
      "inputs": [
        {
          "internalType": "uint256",
          "name": "proposalId",
          "type": "uint256"
        },
        {
          "internalType": "address",
          "name": "account",
          "type": "address"
        }
      ],
      "name": "hasVoted",
      "outputs": [
        {
          "internalType": "bool",
          "name": "",
          "type": "bool"
        }
      ],
      "stateMutability": "view",
      "type": "function"
    },
    {
      "inputs": [
        {
          "internalType": "address[]",
          "name": "targets",
          "type": "address[]"
        },
        {
          "internalType": "uint256[]",
          "name": "values",
          "type": "uint256[]"
        },
        {
          "internalType": "bytes[]",
          "name": "calldatas",
          "type": "bytes[]"
        },
        {
          "internalType": "bytes32",
          "name": "descriptionHash",
          "type": "bytes32"
        }
      ],
      "name": "hashProposal",
      "outputs": [
        {
          "internalType": "uint256",
          "name": "",
          "type": "uint256"
        }
      ],
      "stateMutability": "pure",
      "type": "function"
    },
    {
      "inputs": [],
      "name": "name",
      "outputs": [
        {
          "internalType": "string",
          "name": "",
          "type": "string"
        }
      ],
      "stateMutability": "view",
      "type": "function"
    },
    {
      "inputs": [
        {
          "internalType": "address",
          "name": "owner",
          "type": "address"
        }
      ],
      "name": "nonces",
      "outputs": [
        {
          "internalType": "uint256",
          "name": "",
          "type": "uint256"
        }
      ],
      "stateMutability": "view",
      "type": "function"
    },
    {
      "inputs": [
        {
          "internalType": "address",
          "name": "",
          "type": "address"
        },
        {
          "internalType": "address",
          "name": "",
          "type": "address"
        },
        {
          "internalType": "uint256[]",
          "name": "",
          "type": "uint256[]"
        },
        {
          "internalType": "uint256[]",
          "name": "",
          "type": "uint256[]"
        },
        {
          "internalType": "bytes",
          "name": "",
          "type": "bytes"
        }
      ],
      "name": "onERC1155BatchReceived",
      "outputs": [
        {
          "internalType": "bytes4",
          "name": "",
          "type": "bytes4"
        }
      ],
      "stateMutability": "nonpayable",
      "type": "function"
    },
    {
      "inputs": [
        {
          "internalType": "address",
          "name": "",
          "type": "address"
        },
        {
          "internalType": "address",
          "name": "",
          "type": "address"
        },
        {
          "internalType": "uint256",
          "name": "",
          "type": "uint256"
        },
        {
          "internalType": "uint256",
          "name": "",
          "type": "uint256"
        },
        {
          "internalType": "bytes",
          "name": "",
          "type": "bytes"
        }
      ],
      "name": "onERC1155Received",
      "outputs": [
        {
          "internalType": "bytes4",
          "name": "",
          "type": "bytes4"
        }
      ],
      "stateMutability": "nonpayable",
      "type": "function"
    },
    {
      "inputs": [
        {
          "internalType": "address",
          "name": "",
          "type": "address"
        },
        {
          "internalType": "address",
          "name": "",
          "type": "address"
        },
        {
          "internalType": "uint256",
          "name": "",
          "type": "uint256"
        },
        {
          "internalType": "bytes",
          "name": "",
          "type": "bytes"
        }
      ],
      "name": "onERC721Received",
      "outputs": [
        {
          "internalType": "bytes4",
          "name": "",
          "type": "bytes4"
        }
      ],
      "stateMutability": "nonpayable",
      "type": "function"
    },
    {
      "inputs": [
        {
          "internalType": "uint256",
          "name": "proposalId",
          "type": "uint256"
        }
      ],
      "name": "proposalDeadline",
      "outputs": [
        {
          "internalType": "uint256",
          "name": "",
          "type": "uint256"
        }
      ],
      "stateMutability": "view",
      "type": "function"
    },
    {
      "inputs": [
        {
          "internalType": "uint256",
          "name": "proposalId",
          "type": "uint256"
        }
      ],
      "name": "proposalEta",
      "outputs": [
        {
          "internalType": "uint256",
          "name": "",
          "type": "uint256"
        }
      ],
      "stateMutability": "view",
      "type": "function"
    },
    {
      "inputs": [
        {
          "internalType": "uint256",
          "name": "",
          "type": "uint256"
        }
      ],
      "name": "proposalNeedsQueuing",
      "outputs": [
        {
          "internalType": "bool",
          "name": "",
          "type": "bool"
        }
      ],
      "stateMutability": "view",
      "type": "function"
    },
    {
      "inputs": [
        {
          "internalType": "uint256",
          "name": "proposalId",
          "type": "uint256"
        }
      ],
      "name": "proposalProposer",
      "outputs": [
        {
          "internalType": "address",
          "name": "",
          "type": "address"
        }
      ],
      "stateMutability": "view",
      "type": "function"
    },
    {
      "inputs": [
        {
          "internalType": "uint256",
          "name": "proposalId",
          "type": "uint256"
        }
      ],
      "name": "proposalSnapshot",
      "outputs": [
        {
          "internalType": "uint256",
          "name": "",
          "type": "uint256"
        }
      ],
      "stateMutability": "view",
      "type": "function"
    },
    {
      "inputs": [],
      "name": "proposalThreshold",
      "outputs": [
        {
          "internalType": "uint256",
          "name": "",
          "type": "uint256"
        }
      ],
      "stateMutability": "view",
      "type": "function"
    },
    {
      "inputs": [
        {
          "internalType": "uint256",
          "name": "proposalId",
          "type": "uint256"
        }
      ],
      "name": "proposalVotes",
      "outputs": [
        {
          "internalType": "uint256",
          "name": "againstVotes",
          "type": "uint256"
        },
        {
          "internalType": "uint256",
          "name": "forVotes",
          "type": "uint256"
        },
        {
          "internalType": "uint256",
          "name": "abstainVotes",
          "type": "uint256"
        }
      ],
      "stateMutability": "view",
      "type": "function"
    },
    {
      "inputs": [
        {
          "internalType": "address[]",
          "name": "targets",
          "type": "address[]"
        },
        {
          "internalType": "uint256[]",
          "name": "values",
          "type": "uint256[]"
        },
        {
          "internalType": "bytes[]",
          "name": "calldatas",
          "type": "bytes[]"
        },
        {
          "internalType": "string",
          "name": "description",
          "type": "string"
        }
      ],
      "name": "propose",
      "outputs": [
        {
          "internalType": "uint256",
          "name": "",
          "type": "uint256"
        }
      ],
      "stateMutability": "nonpayable",
      "type": "function"
    },
    {
      "inputs": [
        {
          "internalType": "address[]",
          "name": "targets",
          "type": "address[]"
        },
        {
          "internalType": "uint256[]",
          "name": "values",
          "type": "uint256[]"
        },
        {
          "internalType": "bytes[]",
          "name": "calldatas",
          "type": "bytes[]"
        },
        {
          "internalType": "bytes32",
          "name": "descriptionHash",
          "type": "bytes32"
        }
      ],
      "name": "queue",
      "outputs": [
        {
          "internalType": "uint256",
          "name": "",
          "type": "uint256"
        }
      ],
      "stateMutability": "nonpayable",
      "type": "function"
    },
    {
      "inputs": [
        {
          "internalType": "uint256",
          "name": "blockNumber",
          "type": "uint256"
        }
      ],
      "name": "quorum",
      "outputs": [
        {
          "internalType": "uint256",
          "name": "",
          "type": "uint256"
        }
      ],
      "stateMutability": "view",
      "type": "function"
    },
    {
      "inputs": [],
      "name": "quorumDenominator",
      "outputs": [
        {
          "internalType": "uint256",
          "name": "",
          "type": "uint256"
        }
      ],
      "stateMutability": "view",
      "type": "function"
    },
    {
      "inputs": [
        {
          "internalType": "uint256",
          "name": "timepoint",
          "type": "uint256"
        }
      ],
      "name": "quorumNumerator",
      "outputs": [
        {
          "internalType": "uint256",
          "name": "",
          "type": "uint256"
        }
      ],
      "stateMutability": "view",
      "type": "function"
    },
    {
      "inputs": [],
      "name": "quorumNumerator",
      "outputs": [
        {
          "internalType": "uint256",
          "name": "",
          "type": "uint256"
        }
      ],
      "stateMutability": "view",
      "type": "function"
    },
    {
      "inputs": [
        {
          "internalType": "address",
          "name": "target",
          "type": "address"
        },
        {
          "internalType": "uint256",
          "name": "value",
          "type": "uint256"
        },
        {
          "internalType": "bytes",
          "name": "data",
          "type": "bytes"
        }
      ],
      "name": "relay",
      "outputs": [],
      "stateMutability": "payable",
      "type": "function"
    },
    {
      "inputs": [
        {
          "internalType": "uint256",
          "name": "newProposalThreshold",
          "type": "uint256"
        }
      ],
      "name": "setProposalThreshold",
      "outputs": [],
      "stateMutability": "nonpayable",
      "type": "function"
    },
    {
      "inputs": [
        {
          "internalType": "uint48",
          "name": "newVotingDelay",
          "type": "uint48"
        }
      ],
      "name": "setVotingDelay",
      "outputs": [],
      "stateMutability": "nonpayable",
      "type": "function"
    },
    {
      "inputs": [
        {
          "internalType": "uint32",
          "name": "newVotingPeriod",
          "type": "uint32"
        }
      ],
      "name": "setVotingPeriod",
      "outputs": [],
      "stateMutability": "nonpayable",
      "type": "function"
    },
    {
      "inputs": [
        {
          "internalType": "uint256",
          "name": "proposalId",
          "type": "uint256"
        }
      ],
      "name": "state",
      "outputs": [
        {
          "internalType": "enum IGovernor.ProposalState",
          "name": "",
          "type": "uint8"
        }
      ],
      "stateMutability": "view",
      "type": "function"
    },
    {
      "inputs": [
        {
          "internalType": "bytes4",
          "name": "interfaceId",
          "type": "bytes4"
        }
      ],
      "name": "supportsInterface",
      "outputs": [
        {
          "internalType": "bool",
          "name": "",
          "type": "bool"
        }
      ],
      "stateMutability": "view",
      "type": "function"
    },
    {
      "inputs": [],
      "name": "token",
      "outputs": [
        {
          "internalType": "contract IERC5805",
          "name": "",
          "type": "address"
        }
      ],
      "stateMutability": "view",
      "type": "function"
    },
    {
      "inputs": [
        {
          "internalType": "uint256",
          "name": "newQuorumNumerator",
          "type": "uint256"
        }
      ],
      "name": "updateQuorumNumerator",
      "outputs": [],
      "stateMutability": "nonpayable",
      "type": "function"
    },
    {
      "inputs": [],
      "name": "version",
      "outputs": [
        {
          "internalType": "string",
          "name": "",
          "type": "string"
        }
      ],
      "stateMutability": "view",
      "type": "function"
    },
    {
      "inputs": [],
      "name": "votingDelay",
      "outputs": [
        {
          "internalType": "uint256",
          "name": "",
          "type": "uint256"
        }
      ],
      "stateMutability": "view",
      "type": "function"
    },
    {
      "inputs": [],
      "name": "votingPeriod",
      "outputs": [
        {
          "internalType": "uint256",
          "name": "",
          "type": "uint256"
        }
      ],
      "stateMutability": "view",
      "type": "function"
    },
    {
      "stateMutability": "payable",
      "type": "receive"
    }
  ],
  "bytecode": "0x61018060405234620000b3576200001f6200001962000141565b620001a8565b604051613484908162000b49823960805181612bce015260a05181612c83015260c05181612b98015260e05181612c1d01526101005181612c43015261012051816111020152610140518161112e01526101605181818161137c0152818161174c0152818161186b015281816118f501528181611c5c015281816124f60152818161265901528181612726015261282f0152f35b600080fd5b634e487b7160e01b600052604160045260246000fd5b604081019081106001600160401b03821117620000ea57604052565b620000b8565b60c081019081106001600160401b03821117620000ea57604052565b601f909101601f19168101906001600160401b03821190821017620000ea57604052565b604051906200013f82620000ce565b565b6200400d602081380391826040519384926200015e82856200010c565b833981010312620000b357516001600160a01b0381168103620000b35790565b604051906200018d82620000ce565b601f8252565b60405190620001a282620000ce565b60018252565b62000288620001b66200017e565b602081017f416d6572696361205061727479204f6e2d436861696e20476f7665726e6f72008152620001e762000193565b906020820190603160f81b8252620001ff8462000711565b610120526200020e836200081f565b6101405283519020918260e05251902080610100524660a0526040519060208201927f8b73c3c69bb8fe3d512ecc4cf759cc79239f7b179b0ffacaa9a75d522b39400f8452604083015260608201524660808201523060a082015260a081526200027881620000f0565b5190206080523060c05262000407565b62000292620004fa565b6200029c62000543565b620002a662000599565b6001600160a01b0316610160526200013f620005d3565b90600182811c92168015620002ef575b6020831014620002d957565b634e487b7160e01b600052602260045260246000fd5b91607f1691620002cd565b601f811162000307575050565b6000906003825260208220906020601f850160051c8301941062000348575b601f0160051c01915b8281106200033c57505050565b8181556001016200032f565b909250829062000326565b601f811162000360575050565b60009081805260208220906020601f850160051c83019410620003a0575b601f0160051c01915b8281106200039457505050565b81815560010162000387565b90925082906200037e565b90601f8211620003b9575050565b60019160009083825260208220906020601f850160051c83019410620003fc575b601f0160051c01915b828110620003f15750505050565b8181558301620003e3565b9092508290620003da565b80519091906001600160401b038111620000ea5762000433816200042d600354620002bd565b620002fa565b602080601f831160011462000472575081929360009262000466575b50508160011b916000199060031b1c191617600355565b0151905038806200044f565b6003600052601f198316949091907fc2575a0e9e593c00f959f8c92f12db2869c3395a3b0502d05e2516446f71f85b926000905b878210620004e1575050836001959610620004c7575b505050811b01600355565b015160001960f88460031b161c19169055388080620004bc565b80600185968294968601518155019501930190620004a6565b6008547fc565b045403dc03c2eea82b81a0465edad9e2e7fc4d97e11421c209da93d7a936040805165ffffffffffff8416815260006020820152a165ffffffffffff1916600855565b6713b00000000000006008547f7e3f7f0708a84de9203036abaa450dccc85ad5ff52f78c170f3edb55cf5e88286040805163ffffffff8460301c1681526113b06020820152a163ffffffff60301b191617600855565b7fccb45da8d5717e6c4544694297c4ba5cf151d455c9bb0ed4fc7a38411bc054616040600754815190815260016020820152a16001600755565b600954600090806200062557505060008051602062003fed833981519152604060005b6200060a620006046200067b565b62000a42565b505081516001600160d01b03909116815260056020820152a1565b6000199181838101116200066757600990520160008051602062003fcd833981519152015460008051602062003fed8339815191529060409060301c620005f6565b634e487b7160e01b81526011600452602490fd5b610160516040516324776b7d60e21b815290602090829060049082906001600160a01b03165afa8091600091620006c3575b5090620006c05750620006c04362000b15565b90565b6020813d821162000708575b81620006de602093836200010c565b810103126200070457519065ffffffffffff8216820362000701575038620006ad565b80fd5b5080fd5b3d9150620006cf565b9081516020908181106000146200073057505090620006c09062000937565b6001600160401b038111620000ea576000916200075982620007538554620002bd565b62000353565b80601f83116001146200079857508293948293926200078c575b50508160011b916000199060031b1c191617905560ff90565b01519050388062000773565b60008052601f198316957f290decd9548b62a8d60345a988386fc84ba6bc95484008f6362f93160ef3e563929185905b8882106200080657505083600195969710620007ec575b505050811b01905560ff90565b015160001960f88460031b161c19169055388080620007df565b80600185968294968601518155019501930190620007c8565b9081516020908181106000146200083e57505090620006c09062000937565b6001600160401b038111620000ea576001916200086782620008618554620002bd565b620003ab565b80601f8311600114620008a65750819293946000926200089a575b5050600019600383901b1c191690821b17905560ff90565b01519050388062000882565b6001600052601f198316959091907fb10e2d527612073b26eecdfd717e6a320cf44b4afac2b0732d9fcbe2b7fa0cf6926000905b888210620008fb5750508385969710620007ec57505050811b01905560ff90565b808785968294968601518155019501930190620008da565b60208151910151906020811062000928575090565b6000199060200360031b1b1690565b601f81511162000952576200094c8162000913565b90511790565b6040519063305a27a960e01b82528160208060048301528251908160248401526000935b8285106200099a575050604492506000838284010152601f80199101168101030190fd5b848101820151868601604401529381019385935062000976565b600019810191908211620009c457565b634e487b7160e01b600052601160045260246000fd5b60095468010000000000000000811015620000ea57600181018060095581101562000a2c5760096000526020600020019065ffffffffffff81511690602065ffffffffffff1991015160301b16179055565b634e487b7160e01b600052603260045260246000fd5b600954801562000af95762000a5b62000a7491620009b4565b600960005260008051602062003fcd8339815191520190565b80549165ffffffffffff80821690841681811162000ae7570362000ab25750805465ffffffffffff1666050000000000001790555b60301c90600590565b62000ae1915062000ad462000ac662000130565b65ffffffffffff9092168252565b60056020820152620009da565b62000aa9565b604051632520601d60e01b8152600490fd5b5062000b0d9062000ad462000ac662000130565b600090600590565b65ffffffffffff9081811162000b29571690565b604490604051906306dfcc6560e41b8252603060048301526024820152fdfe6080604052600436101561001b575b361561001957600080fd5b005b60003560e01c806301ffc9a71461030657806302a251a31461030157806306f3f9e6146102fc57806306fdde03146102f7578063143489d0146102f2578063150b7a02146102ed578063160cbed7146102e85780632656227d146102e35780632d63f693146102de5780632fe3e261146102d95780633932abb1146102d45780633e4f49e6146102cf57806343859632146102ca578063452115d6146102c55780634bf5d7e9146102c0578063544ffc9c146102bb57806354fd4d50146102b657806356781388146102b15780635b8d0e0d146102ac5780635f398a14146102a757806360c4247f146102a2578063790518871461029d5780637b3c71d3146102985780637d5e81e2146102935780637ecebe001461028e57806384b0196e146102895780638ff262e31461028457806391ddadf41461027f57806397c3d3341461027a5780639a802a6d14610275578063a7713a7014610270578063a8f8a6681461024d578063a9a952941461026b578063ab58fb8e14610266578063b58131b014610261578063bc197c811461025c578063c01f9e3714610257578063c28bc2fa14610252578063c59057e41461024d578063dd4e2ba514610248578063deaaa7cc14610243578063e540d01d1461023e578063eb9019d414610239578063ece40cc114610234578063f23a6e611461022f578063f8ce560a1461022a5763fc0c546a0361000e576118df565b61183a565b6117e5565b611790565b6116f4565b61164b565b611610565b6115b2565b611420565b61154a565b61152c565b6114a4565b611486565b61144f565b611433565b6113f4565b611312565b6112f6565b6112cb565b6111b3565b6110e9565b61107b565b610fe2565b610f8d565b610f1a565b610eec565b610e7d565b610df9565b610d7c565b610d2a565b610cdd565b610cad565b610c0f565b610bba565b610b8d565b610b44565b610b09565b610ad2565b6109f5565b610976565b61075c565b6105c1565b6104dc565b6103b8565b610391565b3461038c57602036600319011261038c5760043563ffffffff60e01b811680910361038c576020906366defe7760e11b811490811561037b575b811561036a575b8115610359575b506040519015158152f35b6301ffc9a760e01b1490503861034e565b630271189760e51b81149150610347565b6332a2ad4360e11b81149150610340565b600080fd5b3461038c57600036600319011261038c57602063ffffffff60085460301c16604051908152f35b3461038c57602036600319011261038c576004356103d4612428565b60648111610461576001600160d01b0390816103ee61317e565b166103f7612644565b92808311610441577f0553476bf02ef2726e8ce5ced78d63e26e602e4a2257b1f559418e24b46339979361042d9184169061327b565b5050604080519182526020820192909252a1005b6040516306dfcc6560e41b815260d0600482015260248101849052604490fd5b6044906040519063243e544560e01b8252600482015260646024820152fd5b60005b8381106104935750506000910152565b8181015183820152602001610483565b906020916104bc81518092818552858086019101610480565b601f01601f1916010190565b9060206104d99281815201906104a3565b90565b3461038c576000806003193601126105be5760405190806003546104ff81611924565b808552916001918083169081156105945750600114610539575b61053585610529818703826106bf565b604051918291826104c8565b0390f35b9250600383527fc2575a0e9e593c00f959f8c92f12db2869c3395a3b0502d05e2516446f71f85b5b82841061057c57505050810160200161052982610535610519565b80546020858701810191909152909301928101610561565b8695506105359693506020925061052994915060ff191682840152151560051b8201019293610519565b80fd5b3461038c57602036600319011261038c576004356000526004602052602060018060a01b0360406000205416604051908152f35b600435906001600160a01b038216820361038c57565b602435906001600160a01b038216820361038c57565b604435906001600160a01b038216820361038c57565b634e487b7160e01b600052604160045260246000fd5b604081019081106001600160401b0382111761066857604052565b610637565b602081019081106001600160401b0382111761066857604052565b60c081019081106001600160401b0382111761066857604052565b61010081019081106001600160401b0382111761066857604052565b90601f801991011681019081106001600160401b0382111761066857604052565b604051906106ed8261064d565b565b6001600160401b03811161066857601f01601f191660200190565b929192610716826106ef565b9161072460405193846106bf565b82948184528183011161038c578281602093846000960137010152565b9080601f8301121561038c578160206104d99335910161070a565b3461038c57608036600319011261038c576107756105f5565b5061077e61060b565b506064356001600160401b03811161038c5761079e903690600401610741565b50604051630a85bd0160e11b8152602090f35b6001600160401b0381116106685760051b60200190565b81601f8201121561038c578035916107df836107b1565b926107ed60405194856106bf565b808452602092838086019260051b82010192831161038c578301905b828210610817575050505090565b81356001600160a01b038116810361038c578152908301908301610809565b81601f8201121561038c5780359161084d836107b1565b9261085b60405194856106bf565b808452602092838086019260051b82010192831161038c578301905b828210610885575050505090565b81358152908301908301610877565b9080601f8301121561038c578135906108ac826107b1565b926108ba60405194856106bf565b828452602092838086019160051b8301019280841161038c57848301915b8483106108e85750505050505090565b82356001600160401b03811161038c57869161090984848094890101610741565b8152019201916108d8565b608060031982011261038c576001600160401b039160043583811161038c5782610940916004016107c8565b9260243581811161038c578361095891600401610836565b9260443591821161038c5761096f91600401610894565b9060643590565b3461038c5761099061098736610914565b92919091611a03565b61099981611a67565b9060088210156109f0576010600160ff84161b16156109c457604051634844252360e11b8152600490fd5b6109e7606492604051926331b75e4d60e01b845260048401526024830190610b80565b60106044820152fd5b610b6a565b610a0d610a0136610914565b81838596939495611a03565b91610a1783611a67565b9360088510156109f0576030600160ff87161b1615610aa55791610a69918493610a64610a51610535976000526004602052604060002090565b805460ff60f01b1916600160f01b179055565b612078565b6040518181527f712ae1383f79ac853f8d882153778e0260ef8f03b504e2866e0593e04d2b291f90602090a16040519081529081906020820190565b6040516331b75e4d60e01b815260048101859052606490610ac96024820188610b80565b60306044820152fd5b3461038c57602036600319011261038c576004356000526004602052602065ffffffffffff60406000205460a01c16604051908152f35b3461038c57600036600319011261038c5760206040517f3e83946653575f9a39005e1545185629e92736b7528ab20ca3816f315424a8118152f35b3461038c57600036600319011261038c57602065ffffffffffff60085416604051908152f35b634e487b7160e01b600052602160045260246000fd5b9060088210156109f05752565b3461038c57602036600319011261038c576020610bab600435611a67565b610bb86040518092610b80565bf35b3461038c57604036600319011261038c57602060ff610c03610bda61060b565b600435600052600a845260036040600020019060018060a01b0316600052602052604060002090565b54166040519015158152f35b3461038c57610c1d36610914565b92610c2d84838584969596611a03565b610c3681611a67565b60088110156109f0571580610c8e575b15610c6a57610535610c5a868686866120f1565b6040519081529081906020820190565b604051638fe5d8a960e01b81526004810191909152336024820152604490fd5b0390fd5b5080600052600460205260018060a01b03604060002054163314610c46565b3461038c57600036600319011261038c57610535610cc9612710565b6040519182916020835260208301906104a3565b3461038c57602036600319011261038c57600435600052600a6020526040600020805461053560026001840154930154604051938493846040919493926060820195825260208201520152565b3461038c57600036600319011261038c57610535604051610d4a8161064d565b60018152603160f81b60208201526040519182916020835260208301906104a3565b6024359060ff8216820361038c57565b3461038c57604036600319011261038c576020610dc4610d9a610d6c565b604051610da68161066d565b6000815260405191610db78361066d565b6000835233600435612314565b604051908152f35b9181601f8401121561038c578235916001600160401b03831161038c576020838186019501011161038c57565b3461038c5760c036600319011261038c57610e12610d6c565b610e1a610621565b906001600160401b039060643582811161038c57610e3c903690600401610dcc565b60843584811161038c57610e54903690600401610741565b9160a43594851161038c5761053595610e74610c5a963690600401610741565b946004356121a2565b3461038c57608036600319011261038c57610e96610d6c565b6001600160401b039060443582811161038c57610eb7903690600401610dcc565b909160643593841161038c57610ee2610dc493610eda6020963690600401610741565b93369161070a565b9033600435612314565b3461038c57602036600319011261038c576020610dc460043561287b565b65ffffffffffff81160361038c57565b3461038c57602036600319011261038c57600435610f3781610f0a565b610f3f612428565b6008547fc565b045403dc03c2eea82b81a0465edad9e2e7fc4d97e11421c209da93d7a93604080519365ffffffffffff9081851686521693846020820152a165ffffffffffff191617600855005b3461038c57606036600319011261038c57610fa6610d6c565b6044356001600160401b03811161038c57602091610fd5610fce610dc4933690600401610dcc565b369161070a565b60405191610db78361066d565b3461038c57608036600319011261038c576001600160401b0360043581811161038c576110139036906004016107c8565b9060243581811161038c5761102c903690600401610836565b9160443582811161038c57611045903690600401610894565b60643592831161038c573660238401121561038c5761053593611075610c5a94369060248160040135910161070a565b92611be3565b3461038c57602036600319011261038c576001600160a01b0361109c6105f5565b1660005260026020526020604060002054604051908152f35b90815180825260208080930193019160005b8281106110d5575050505090565b8351855293810193928101926001016110c7565b3461038c57600036600319011261038c576111846111267f0000000000000000000000000000000000000000000000000000000000000000612ca9565b6105356111527f0000000000000000000000000000000000000000000000000000000000000000612da0565b611192604051916111628361066d565b60008352604051958695600f60f81b875260e0602088015260e08701906104a3565b9085820360408701526104a3565b90466060850152306080850152600060a085015283820360c08501526110b5565b3461038c57608036600319011261038c576004356111cf610d6c565b906111d8610621565b916064356001600160401b03811161038c5761128b6111fe61128f923690600401610741565b6001600160a01b03861660009081526002602052604090208054600181019091556112859060405160208101917ff2aad550cf55f045cb27e9c559f9889fdfb6e6cdaa032301d6ea397784ae51d7835288604083015260ff8816606083015260018060a01b038a16608083015260a082015260a0815261127d81610688565b519020612b6f565b86612e62565b1590565b6112aa5790610c5a91610535936112a461195e565b92612298565b6040516394ab6c0760e01b81526001600160a01b0384166004820152602490fd5b3461038c57600036600319011261038c5760206112e6612644565b65ffffffffffff60405191168152f35b3461038c57600036600319011261038c57602060405160648152f35b3461038c57606036600319011261038c5761132b6105f5565b6044356001600160401b03811161038c5760449161134f6020923690600401610741565b50604051630748d63560e31b81526001600160a01b039182166004820152602480359082015292839182907f0000000000000000000000000000000000000000000000000000000000000000165afa80156113ef57610535916000916113c1575b506040519081529081906020820190565b6113e2915060203d81116113e8575b6113da81836106bf565b8101906127ef565b386113b0565b503d6113d0565b612638565b3461038c57600036600319011261038c5760206001600160d01b0361141761317e565b16604051908152f35b3461038c576020610dc461098736610914565b3461038c57602036600319011261038c57602060405160008152f35b3461038c57602036600319011261038c576004356000526004602052602065ffffffffffff60016040600020015416604051908152f35b3461038c57600036600319011261038c576020600754604051908152f35b3461038c5760a036600319011261038c576114bd6105f5565b506114c661060b565b506001600160401b0360443581811161038c576114e7903690600401610836565b5060643581811161038c57611500903690600401610836565b5060843590811161038c57611519903690600401610741565b5060405163bc197c8160e01b8152602090f35b3461038c57602036600319011261038c576020610dc4600435611bac565b606036600319011261038c5761155e6105f5565b604435906001600160401b03821161038c5760008091611585610019943690600401610dcc565b9061158e612428565b81604051928392833781018481520391602435905af16115ac612048565b90612965565b3461038c57600036600319011261038c576105356040516115d28161064d565b602081527f737570706f72743d627261766f2671756f72756d3d666f722c6162737461696e60208201526040519182916020835260208301906104a3565b3461038c57600036600319011261038c5760206040517ff2aad550cf55f045cb27e9c559f9889fdfb6e6cdaa032301d6ea397784ae51d78152f35b3461038c57602036600319011261038c5760043563ffffffff8082169182810361038c57611677612428565b82156116db577f7e3f7f0708a84de9203036abaa450dccc85ad5ff52f78c170f3edb55cf5e8828604069ffffffff00000000000093600854958251918760301c1682526020820152a160301b169069ffffffff000000000000191617600855600080f35b60405163f1cfbf0560e01b815260006004820152602490fd5b3461038c57604036600319011261038c57604460206117116105f5565b600060405161171f8161066d565b52604051630748d63560e31b81526001600160a01b039182166004820152602480359082015292839182907f0000000000000000000000000000000000000000000000000000000000000000165afa80156113ef57610535916000916113c157506040519081529081906020820190565b3461038c57602036600319011261038c576004356117ac612428565b60075460408051918252602082018390527fccb45da8d5717e6c4544694297c4ba5cf151d455c9bb0ed4fc7a38411bc0546191a1600755005b3461038c5760a036600319011261038c576117fe6105f5565b5061180761060b565b506084356001600160401b03811161038c57611827903690600401610741565b5060405163f23a6e6160e01b8152602090f35b3461038c57602036600319011261038c57604051632394e7a360e21b815260048035908201819052906020816024817f00000000000000000000000000000000000000000000000000000000000000006001600160a01b03165afa80156113ef5761053592610c5a926000926118bb575b506118b59061287b565b906133b5565b6118b59192506118d89060203d81116113e8576113da81836106bf565b91906118ab565b3461038c57600036600319011261038c576040517f00000000000000000000000000000000000000000000000000000000000000006001600160a01b03168152602090f35b90600182811c92168015611954575b602083101461193e57565b634e487b7160e01b600052602260045260246000fd5b91607f1691611933565b6040519061196b8261066d565b60008252565b90815180825260208080930193019160005b828110611991575050505090565b83516001600160a01b031685529381019392810192600101611983565b90815180825260208092019182818360051b85019501936000915b8483106119d95750505050505090565b90919293949584806119f383856001950387528a516104a3565b98019301930191949392906119c9565b9290611a4f92611a6192604051948592611a3f611a2c602086019960808b5260a0870190611971565b601f1996878783030160408801526110b5565b90858583030160608601526119ae565b906080830152039081018352826106bf565b51902090565b611a7b816000526004602052604060002090565b5460ff8160f01c16611b8f5760f81c611b8957611ac2611ab7611aa8836000526004602052604060002090565b5460a01c65ffffffffffff1690565b65ffffffffffff1690565b8015611b7057611ad3611ab7612644565b80911015611b6957611ae482611bac565b10611aef5750600190565b611afb61128b826124b1565b8015611b44575b15611b0d5750600390565b611ab76001611b29611b36936000526004602052604060002090565b015465ffffffffffff1690565b611b3f57600490565b600590565b50611b6461128b82600052600a6020526040600020600181015490541090565b611b02565b5050600090565b604051636ad0607560e01b815260048101839052602490fd5b50600290565b5050600790565b634e487b7160e01b600052601160045260246000fd5b600052600460205260406000205465ffffffffffff908163ffffffff8260d01c169160a01c1601818111611bde571690565b611b96565b9193929093611bf28233612449565b15611ce8576007549485611c0e575b6104d99495503393611e53565b65ffffffffffff60001981611c21612644565b160190808211611bde576000604051611c398161066d565b52604051630748d63560e31b8152336004820152911660248201526020816044817f00000000000000000000000000000000000000000000000000000000000000006001600160a01b03165afa9081156113ef57600091611cca575b50868110611ca35750611c01565b604051636121770b60e11b8152336004820152602481019190915260448101879052606490fd5b611ce2915060203d81116113e8576113da81836106bf565b38611c95565b60405163d9b3955760e01b8152336004820152602490fd5b604090611d1c6000939594606083019683526020830190610b80565b0152565b9060018201809211611bde57565b91908201809211611bde57565b90611d45826107b1565b611d5260405191826106bf565b8281528092611d63601f19916107b1565b019060005b828110611d7457505050565b806060602080938501015201611d68565b9592611db890611dc6939b9a9899969592885260209b60018060a01b03168c8901526101208060408a0152880190611971565b9086820360608801526110b5565b9784890360808601528251808a52818a019180808360051b8d01019501926000905b838210611e255750505050506104d996975090611e0c9184820360a08601526119ae565b9360c083015260e08201526101008184039101526104a3565b90919293958380611e448f93600194601f199082030186528a516104a3565b98019201920190939291611de8565b919493909294611e6b86516020880120828686611a03565b958351855190818114801590611fff575b8015611ff7575b611fce57505065ffffffffffff9485611ea9611aa88a6000526004602052604060002090565b16611fa7577f7d84a6263ae0d98d3329bd7b46bb4e8d6f98cd35a7adb45c274c8b7fd5ebd5e095611fa29363ffffffff611ef2611ee4612644565b600854948086169116611d2e565b9260301c16611f80611f0e8c6000526004602052604060002090565b80546001600160a01b0319166001600160a01b038a16178155611f57611f3386612fd1565b825465ffffffffffff60a01b191660a09190911b65ffffffffffff60a01b16178255565b611f6083613003565b815463ffffffff60d01b191660d09190911b63ffffffff60d01b16179055565b611f94611f8d8951611d3b565b9184611d2e565b936040519889988d8a611d85565b0390a1565b87611fb181611a67565b6040516331b75e4d60e01b8152918291610c8a9160048401611d00565b8351604051630447b05d60e41b8152600481019290925260248201526044810191909152606490fd5b508015611e83565b508351811415611e7c565b6000198114611bde5760010190565b634e487b7160e01b600052603260045260246000fd5b80518210156120435760209160051b010190565b612019565b3d15612073573d90612059826106ef565b9161206760405193846106bf565b82523d6000602084013e565b606090565b929190600093845b81518110156120da576120d5906120cf87806001600160a01b036120a4858861202f565b51166120b0858961202f565b51906120bc868b61202f565b5191602083519301915af16115ac612048565b5061200a565b612080565b505050509050565b600019810191908211611bde57565b906120fd939291611a03565b61210681611a67565b60088110156109f057603b600160ff83161b16156121755750612133816000526004602052604060002090565b80546001600160f81b0316600160f81b1790556040518181527f789cf55be980739dad1d0699b93b58e806b51c9d96619bfa8fe0a28abaa7b30c90602090a190565b90612199606492604051926331b75e4d60e01b845260048401526024830190610b80565b603b6044820152fd5b93909291969561128b61225c916122568a6121d88160018060a01b03166000526002602052604060002080549060018201905590565b6121e336888a61070a565b602081519101208b5160208d0120906040519260208401947f3e83946653575f9a39005e1545185629e92736b7528ab20ca3816f315424a81186528d604086015260ff8d16606086015260018060a01b0316608085015260a084015260c083015260e082015260e0815261127d816106a3565b8a612e62565b612277576104d995969161227191369161070a565b92612314565b6040516394ab6c0760e01b81526001600160a01b0388166004820152602490fd5b916104d99391604051936122ab8561066d565b60008552612314565b93909260ff6122e0936104d997958752166020860152604085015260a0606085015260a08401906104a3565b9160808184039101526104a3565b909260ff6080936104d996958452166020830152604082015281606082015201906104a3565b92919061232084611a67565b60088110156109f0576002600160ff83161b16156123fa5750836000526004602052612371612369612363611ab7604060002065ffffffffffff905460a01c1690565b836127fe565b83838761254d565b948051156000146123be57506123b87fb8e138887d0aa13bab447e82de9d5c1777041ecd21ca36ba824ff1e6c07ddda4938660405194859460018060a01b031697856122ee565b0390a290565b6123b8907fe2babfbac5889a709b63bb7f598b324e08bc5a4fb9ec647fb3cbc9ec07eb8712948760405195869560018060a01b031698866122b4565b6040516331b75e4d60e01b81526004810186905260649161241f906024830190610b80565b60026044820152fd5b33300361243157565b6040516347096e4760e01b8152336004820152602490fd5b908051603481106124a95760131981830101516001600160b01b03191669dc8f8d908f908c9a8dc360b01b016124a957612488916029198201906129ba565b901591821561249657505090565b6001600160a01b03918216911614919050565b505050600190565b600052600a6020526040600020600460205265ffffffffffff60406000205460a01c16604051632394e7a360e21b815281600482015260208160248160018060a01b037f0000000000000000000000000000000000000000000000000000000000000000165afa80156113ef5761254892612537926000926118bb57506118b59061287b565b916002600182015491015490611d2e565b101590565b61256490929192600052600a602052604060002090565b916003830161258f61258883839060018060a01b0316600052602052604060002090565b5460ff1690565b612617576125b560ff93926125c2929060018060a01b0316600052602052604060002090565b805460ff19166001179055565b16806125d957506125d4828254611d2e565b905590565b600181036125f057506001016125d4828254611d2e565b600203612605576002016125d4828254611d2e565b6040516303599be160e11b8152600490fd5b6040516371c6af4960e01b81526001600160a01b0383166004820152602490fd5b6040513d6000823e3d90fd5b6040516324776b7d60e21b81526020816004817f00000000000000000000000000000000000000000000000000000000000000006001600160a01b03165afa6000918161269b575b506104d957506104d943612fd1565b90916020823d82116126cf575b816126b5602093836106bf565b810103126105be5750516126c881610f0a565b903861268c565b3d91506126a8565b604051906126e48261064d565b601d82527f6d6f64653d626c6f636b6e756d6265722666726f6d3d64656661756c740000006020830152565b604051634bf5d7e960e01b8152600080826004817f00000000000000000000000000000000000000000000000000000000000000006001600160a01b03165afa90918282612768575b50506104d957506104d96126d7565b909192503d8082843e61277b81846106bf565b8201916020818403126127e7578051906001600160401b0382116127eb570182601f820112156127e7578051916127b1836106ef565b936127bf60405195866106bf565b838552602084840101116105be5750906127df9160208085019101610480565b903880612759565b5080fd5b8280fd5b9081602091031261038c575190565b604051630748d63560e31b81526001600160a01b0391821660048201526024810192909252602090829060449082907f0000000000000000000000000000000000000000000000000000000000000000165afa9081156113ef57600091612863575090565b6104d9915060203d81116113e8576113da81836106bf565b6128836131c8565b926000925065ffffffffffff91821681106128a8575050505b6001600160d01b031690565b6128b491929350612fd1565b600954908390826005811161290f575b506128cf935061334c565b806128da575061289c565b61290a91506128eb612903916120e2565b600960005260008051602061342f8339815191520190565b5460301c90565b61289c565b909261291a82613053565b8203918211611bde576128cf9460098752808360008051602061342f833981519152015416908516106000146129535750915b386128c4565b92915061295f90611d20565b9061294d565b9091906106ed575080511561297c57805190602001fd5b60405163d6bda27560e01b8152600490fd5b908160011b9180830460021490151715611bde57565b908160041b9180830460101490151715611bde57565b9190825182118015612a43575b612a1a576129d481611d20565b821180612a25575b6129e790151561298e565b60280180602811611bde57818303838111611bde5703612a1a57612a0a92612a4c565b90916001600160a01b0390911690565b505050600090600090565b50828101602001516001600160f01b03191661060f60f31b146129dc565b508181116129c7565b929092612a5884611d20565b831180612adf575b612a6b90151561298e565b936000948101809111611bde579192905b818310612a8c5750505060019190565b9092919360ff612aad612aa86020888601015160ff60f81b1690565b612afd565b1690600f8211612ad35790612ac4612acb926129a4565b019461200a565b919290612a7c565b50600094508493505050565b50808401602001516001600160f01b03191661060f60f31b14612a60565b60f81c602f811180612b65575b15612b1957602f190160ff1690565b6060811180612b5b575b15612b32576056190160ff1690565b6040811180612b51575b15612b4b576036190160ff1690565b5060ff90565b5060478110612b3c565b5060678110612b23565b50603a8110612b0a565b604290612b7a612b95565b906040519161190160f01b8352600283015260228201522090565b307f00000000000000000000000000000000000000000000000000000000000000006001600160a01b03161480612c80575b15612bf0577f000000000000000000000000000000000000000000000000000000000000000090565b60405160208101907f8b73c3c69bb8fe3d512ecc4cf759cc79239f7b179b0ffacaa9a75d522b39400f82527f000000000000000000000000000000000000000000000000000000000000000060408201527f000000000000000000000000000000000000000000000000000000000000000060608201524660808201523060a082015260a08152611a6181610688565b507f00000000000000000000000000000000000000000000000000000000000000004614612bc7565b60ff8114612ce75760ff811690601f8211612cd55760405191612ccb8361064d565b8252602082015290565b604051632cd44ac360e21b8152600490fd5b50604051600081815491612cfa83611924565b80835292600190818116908115612d7e5750600114612d21575b506104d9925003826106bf565b600080805291507f290decd9548b62a8d60345a988386fc84ba6bc95484008f6362f93160ef3e5635b848310612d6357506104d9935050810160200138612d14565b81935090816020925483858901015201910190918492612d4a565b9050602092506104d994915060ff191682840152151560051b82010138612d14565b60ff8114612dc25760ff811690601f8211612cd55760405191612ccb8361064d565b50604051600081600191825492612dd884611924565b80845293818116908115612d7e5750600114612dfb57506104d9925003826106bf565b600081815291507fb10e2d527612073b26eecdfd717e6a320cf44b4afac2b0732d9fcbe2b7fa0cf65b848310612e3d57506104d9935050810160200138612d14565b81935090816020925483858901015201910190918492612e24565b600411156109f057565b9091813b612e8a57612e749192612f11565b50612e7e81612e58565b15918261249657505090565b6000918291604051612ece81612ec06020820194630b135d3f60e11b998a875260248401526040604484015260648301906104a3565b03601f1981018352826106bf565b51915afa90612edb612048565b82612f03575b82612eeb57505090565b90915060208180518101031261038c57602001511490565b915060208251101591612ee1565b8151919060418303612f4257612f3b92506020820151906060604084015193015160001a90612f4d565b9192909190565b505060009160029190565b91907f7fffffffffffffffffffffffffffffff5d576e7357a4501ddfe92f46681b20a08411612fc557926020929160ff608095604051948552168484015260408301526060820152600092839182805260015afa156113ef5780516001600160a01b03811615612fbc57918190565b50809160019190565b50505060009160039190565b65ffffffffffff90818111612fe4571690565b604490604051906306dfcc6560e41b8252603060048301526024820152fd5b63ffffffff90818111613014571690565b604490604051906306dfcc6560e41b8252602060048301526024820152fd5b811561303d570490565b634e487b7160e01b600052601260045260246000fd5b60018111156104d957600181600160801b81101561316c575b61311461310a6131006130f66130ec6130e261312097600488600160401b61311b9a101561315f575b640100000000811015613152575b62010000811015613145575b610100811015613139575b601081101561312d575b1015613125575b60030260011c6130db818b613033565b0160011c90565b6130db818a613033565b6130db8189613033565b6130db8188613033565b6130db8187613033565b6130db8186613033565b8093613033565b821190565b900390565b60011b6130cb565b811c9160021b916130c4565b60081c91811b916130ba565b60101c9160081b916130af565b60201c9160101b916130a3565b60401c9160201b91613095565b50600160401b9050608082901c61306c565b60095460009080613190575050600090565b80600019810111611bde5760097f6e1540171b6c0c960b71a7020d9f60077f6af931a8bbf590da0223dacf75c7ae9252015460301c90565b600954806131dc5750600090600090600090565b80600019810111611bde5760096000527f6e1540171b6c0c960b71a7020d9f60077f6af931a8bbf590da0223dacf75c7ae015460019165ffffffffffff82169160301c90565b60095490600160401b821015610668576001820180600955821015612043576009600052805160209091015160301b65ffffffffffff191665ffffffffffff919091161760008051602061342f83398151915290910155565b6009549192918015613322576128eb613293916120e2565b9081549165ffffffffffff90818416918316808311613310578692036132d8576132d192509065ffffffffffff82549181199060301b169116179055565b60301c9190565b505061330b906132f76132e96106e0565b65ffffffffffff9092168252565b6001600160d01b0385166020820152613222565b6132d1565b604051632520601d60e01b8152600490fd5b50613346906133326132e96106e0565b6001600160d01b0384166020820152613222565b60009190565b905b82811061335a57505090565b90918082169080831860011c8201809211611bde57600960005265ffffffffffff808360008051602061342f833981519152015416908516106000146133a35750915b9061334e565b9291506133af90611d20565b9061339d565b60001982820982820291828083109203918083039214613424578160641115613411577f5c28f5c28f5c28f5c28f5c28f5c28f5c28f5c28f5c28f5c28f5c28f5c28f5c29936064910990828211900360fe1b910360021c170290565b634e487b7160005260116020526024601cfd5b505060649150049056fe6e1540171b6c0c960b71a7020d9f60077f6af931a8bbf590da0223dacf75c7afa26469706673582212202d93e34532d2cb3aa19f13b29a51f193955503c7daad619a01d01dd27903afcb64736f6c634300081400336e1540171b6c0c960b71a7020d9f60077f6af931a8bbf590da0223dacf75c7af0553476bf02ef2726e8ce5ced78d63e26e602e4a2257b1f559418e24b4633997",
  "linkReferences": {},
  "deployedLinkReferences": {}
}